:0A0000000C94A5020C9427050C9443
:10000A002C050C9400000C94A4110C9400000C9480
:10001A0000000C9400000C9400000C94D3070C947C
:10002A0000000C9400000C9400000C948D040C94B5
:10003A0000000C94D5040C9400000C9400000C945D
:10004A0000000C9400000C94000000000000000066
:10005A00005F00000007000700147F147F14242AA1
:10006A007F2A122313086462364955225000050379
:10007A000000001C2241000041221C0014083E0816
:10008A001408083E0808005030000008080808084C
:10009A00006060000020100804023E5149453E00FD
:1000AA00427F400042615149462141454B31181473
:1000BA00127F1027454545393C4A494930017109A3
:1000CA0005033649494936064949291E003636008C
:1000DA0000005636000008142241001414141414A7
:1000EA0000412214080201510906324979413E7E33
:1000FA001111117E7F494949363E414141227F41D2
:10010A0041221C7F494949417F090909013E414968
:10011A00497A7F0808087F00417F41002040413F1B
:10012A00017F081422417F404040407F020C027F39
:10013A007F0408107F3E4141413E7F090909063E7E
:10014A004151215E7F091929464649494931010130
:10015A007F01013F4040403F1F2040201F3F403861
:10016A00403F631408146307087008076151494542
:10017A0043007F41410002040810200041417F00F2
:10018A0004020102044040404040000102040020F1
:10019A00545454787F4844443838444444203844BA
:1001AA0044487F3854545418087E0901020C5252AC
:1001BA00523E7F0804047800447D40002040443DBC
:1001CA00007F1028440000417F40007C0418047816
:1001DA007C0804047838444444387C14141408080D
:1001EA001414187C7C080404084854545420043F0E
:1001FA004440203C4040207C1C2040201C3C403095
:10020A00403C44281028440C5050503C4464544C00
:10021A0044000836410000007F0000004136080013
:10022A00100808100878464146780000E7E7E7E733
:10023A00E700E7E7E7E7E70001000A0001000A0034
:10024A0001000100000000000000000000000000A2
:10025A000000000000000000000000000000000094
:10026A000000000000000000000000000000000084
:10027A000000000000000000000000000100000073
:10028A00000025640025302E326600203C414B4296
:10029A004F544B49543E0044697374616E63652040
:1002AA005371756172653A202566200A0D00526FF6
:1002BA00626F742E783A202564200A0D00526F620C
:1002CA006F742E793A202564200A0D002D2D2D2DCC
:1002DA002D2D2D2D2D2D2D2D2D2D2D200A0D00529C
:1002EA004F424F542057414C4C00574849544520DF
:1002FA004C494E4500464F4C4F57455200424C41DF
:10030A00434B204C494E4500424C5545544F4F549F
:10031A00480044524956450054455354204D4F54C1
:10032A004F52004D6F746F724C004D6F746F725262
:10033A0000544553542055415254005445535420B7
:10034A00495200302E00312E00322E00332E003456
:10035A002E00352E00362E00372E003C53454C46D3
:10036A0020544553543E002A2A2A2A2A2A2A2A2A6B
:10037A002A2A2A00524320534552564F00312E5200
:10038A004F424F542057414C4C00322E424C554557
:10039A00544F4F54482000332E5748495445204C57
:1003AA00494E4500342E424C41434B204C494E4560
:1003BA0000352E54455354204D4F544F5200362E7B
:1003CA005445535420495220202000372E54455377
:1003DA005420524620202000382E5445535420558C
:1003EA004152542000392E524320534552564F2031
:1003FA000031302E555044415445205242004D415F
:10040A00494E2050524F4752414D00002D4E414E09
:10041A00000001002D4E414E00494E4600000100E9
:10042A00020034020500C50336020500CA033C0275
:10043A000100DD04420201000805440201000A0528
:10044A00460201000C05480201000E054A020C0092
:10045A00600295020B006C02E9020B007702F402BB
:10046A0008008202FF020B008A02070308009502B5
:10047A00FF020A009D0212030600A7021C030B00DA
:10048A00AD0222030700B8022D030700BF0234039E
:10049A000A00C6023B030800D00245030300D80243
:1004AA004D030300DB0250030300DE025303030083
:1004BA00E10256030300E40259030300E7025C0366
:1004CA000300EA025F030300ED0262030C00F0027C
:1004DA0065030D00FC027103090009037E030D0088
:1004EA00120387030D001F0387030D002C039403D7
:1004FA000D003903A1030D004603AE030D0053039B
:10050A00BB030D006003C8030D006D03D5030D0086
:10051A007A03E2030C008703EF030D009303FB0346
:10052A000B00A00396020D00AB0371030D00B80384
:10053A00080406000400860201004E051C0400009F
:10054A00F894EE27ECBBF1E0F5BFE5BFF8E1F1BDA9
:10055A00E1BD8DE0A2E0BB27ED938A95E9F780E043
:10056A0098E0A0E6ED930197E9F7E8E2F4E08591D7
:10057A009591009761F0A591B59105901590BF01ED
:10058A00F00105900D920197E1F7FB01F0CFEFE53D
:10059A00EDBFE8E0EEBFC0E6D2E00C948312E1E5DD
:1005AA00EDB9E0E0EEB988EC90E00197F1F7AB988D
:1005BA00AA9AE0E3EA93E5ECF3E00E94B518EAE2CE
:1005CA00EA93EAECF3E00E94B518E1E2EA93E0E08C
:1005DA00EA932CD0E2E2EA93E1E0EA9327D0E5E25B
:1005EA00EA93E2E0EA9322D0E1E3EA93E0E2EA93D3
:1005FA001DD0E6E2EA93E7E0EA9318D0E0E2EA9354
:10060A00EEE0EA9313D00895E881EA930E942D134D
:10061A000C946B051A93AA98E981EA93F5DFE0E056
:10062A000E94BD18AA9AE12F188157C11A93AA9855
:10063A00EA810E94BD18E981EA93E6DFAA9AE12FCE
:10064A001881C1C01A930A93AA98ED810E94BD1815
:10065A0000E0EA810E1780F4E02FAB81BC81F0E064
:10066A00EA0FFB1FFF93EF93E0E0EA93CDDFAF9130
:10067A00BF91EC930F5FEDCFAA9AE12F1981088100
:10068A00269608951A930A93AA98EE810E94BD1895
:10069A0000E0EA81FB81A02FB0E0AE17BF0748F463
:1006AA00AC81BD81ED91AC83BD83EA93ADDF0F5F71
:1006BA00F0CFAA9AE12F1981088127960895AB985D
:1006CA00E0E2EA93E7E0EA93B1DFAB9A84E091E0F3
:1006DA000197F1F708951A930A9310E0E7E0EA9375
:1006EA0099DF0E2F06FF0BC0AB98E1E6EA93EB8188
:1006FA00FC81FA93EA93E0E2EA93A4DF11E0E7E2ED
:10070A00EA930A9393DFAB9AE12F198108810C943B
:10071A0097051A9310E010E0E9811E1768F4AA8180
:10072A00BB81ED91AA83BB83EA935CD188E592E011
:10073A000197F1F71F5FF0CF1881F4C1AC9902C09D
:10074A00AC9A01C0AC980895AD9902C0AD9A01C0A7
:10075A00AD980895E881EFB9779BFECFB7C1E981DB
:10076A00E03011F4C29801C0C29AC19AC198E881D6
:10077A00EA93F0DFC19AB1C0E0E0EA93EB81E0646A
:10078A000E94C218E981E068EA93E9DFCBC10E94BE
:10079A00C8180530E0E01E072CF40E94D5180F5F38
:1007AA001F4FF7CF0BC00E94C8180530E0E01E07A4
:1007BA002CF40E94D5180F5F1F4FF7CFE1E00E947B
:1007CA00E6181981088123960895A881B981EC91C8
:1007DA00E03031F0ED91A883B983EA93D8DFF5CF01
:1007EA007CC00E94EB18083FE1E01E0734F4E1E008
:1007FA000E94E6180F5F1F4FF6CF0CC00E94EB183D
:10080A00083FE1E01E0734F4E1E00E94E6180F5FBA
:10081A001F4FF6CFE0E0F0E00E94F218099119911B
:10082A00089525971A9310E0153030F40E94FA18AB
:10083A000E94FD181F5FF8CF11E0153038F40E94AE
:10084A00FA180E941319AFDF1F5FF7CF31C0C098A3
:10085A008BE18A95F1F7C09A0E942119E0E0EA93A8
:10086A00E1E20E94C218EFEB0E94C218E6E00E9481
:10087A00C218E3E10E94C218E0E20E94C218ECE04A
:10088A00EA936DDF089525971A9310E0153030F436
:10089A000E94FA180E94FD181F5FF8CF10E0153069
:1008AA0038F40E94FA180E94131971DF1F5FF7CFFC
:1008BA00188128960895A981AA2342F4A881B981AA
:1008CA00E0E0F0E00E942719EDE201C0E0E2EA93DD
:1008DA005EDFE881F9810E942C1922960895EDB114
:1008EA00E065EDB9709A0895B2DF7BDFE0E6F2E0E9
:1008FA000E9430190895E881E064E7B98BE18A958E
:10090A00F1F7369A349BFECF349AE4B1F5B1DEC0E2
:10091A00AA93EA93FA93EFB7EA931A930A931BB14D
:10092A000CB1E12FEC71D9F4E0913605EF5FE09359
:10093A0036050E9434190083A0913605A83019F4AF
:10094A00E0E0E0933605A0913805AF5FA093380543
:10095A00A83029F4E0E0E0933805689420F809917A
:10096A0019913AC01A93E0913805E030E1F3E09129
:10097A003705EF5FE09337050E9434191081A09183
:10098A003705A83019F4E0E0E0933705F894E091D0
:10099A003805E150E09338057894E12F19910895CC
:1009AA00AA93EA93FA93EFB7EA93E0914305E0300A
:1009BA0099F0E150E0934305E0914205EF5FE0933F
:1009CA0042050E943919E081ECB9A0914205A8308C
:1009DA0019F4E0E0E0934205E991EFBFF991E9915A
:1009EA00A9911895A0914305A830E1F3F894E091F4
:1009FA004305E03011F45D9916C0E0914105EF5FBF
:100A0A00E09341050E943919A881A083A09141056C
:100A1A00A83019F4E0E0E0934105E0914305EF5F67
:100A2A00E093430502C0E881ECB978944FC0E0E056
:100A3A00EBB9E8EDEAB9E6E0E0BDE0E0E0BDECE004
:100A4A00E9B908950E943E19AAE2B5E004C00E94DD
:100A5A003E19ACE2B5E0ED91FD913196FE93EE932D
:100A6A00E991EFBFF991E991B991A9911895EBB77D
:100A7A00E06CEBBFE5E0E5BFE0E0E4BFE0ECEABF35
:100A8A0008950E944519AE9A0E944F191FC00E94EC
:100A9A004519AE980E944F1919C00E944519AE9A7D
:100AAA00E0E0F0E0FBBDEABDE093FC04E093FD0466
:100ABA0008950E944519AF9A03C00E944519AF983C
:100ACA00E881F0E0E093FE04F093FF042196089594
:100ADA000E944519AF9AE0E0F0E0F9BDE8BDE09365
:100AEA00FE04E093FF040895E0E0E0932105E1E0CD
:100AFA00E0931C05EA81FB81E0931805F093190540
:100B0A000E945619A0912A05B0912B050E945B19E3
:100B1A00E0931A05F0931B05E881EA93CADFE8819E
:100B2A00EA93AFDF249608956C97EC8DFD8D6E8D58
:100B3A007F8D0E94DA1DE883F9830E9461190E9461
:100B4A00DA1DEA83FB830E9466190E94DA1DEC8390
:100B5A00FD830E946B190E94DA1DEE83FF83ECA5C8
:100B6A00FDA56EA57FA50E94DA1DE887F9870E9478
:100B7A0070190E94DA1DEA87FB87ECA9FDA96EA904
:100B8A007FA90E94DA1DEC87FD87FE01DE011E9611
:100B9A008EE00E94AE20FE013E968EE01FB6F894CB
:100BAA0071C1E097E0916504F0916604A091610437
:100BBA00B09162040E947519ECA7FDA76EA77FA7E2
:100BCA00E0916704F0916804A0916304B091640411
:100BDA000E947519E8A7F9A76AA77BA70E947C1942
:100BEA00ACA9BDA98EA99FA90E948119ECA3FDA356
:100BFA006EA37FA30E948A19A8A9B9A98AA99BA949
:100C0A000E948119E8A3F9A36AA37BA3ECA5FDA519
:100C1A006EA57FA50E948F197F936F93FF93EF9321
:100C2A000E946B190E949619AF91BF918F919F9163
:100C3A000E949D19EC8FFD8F6E8F7F8F0E9466191F
:100C4A000E94A3190E949B1E7F936F93FF93EF93B9
:100C5A000E9461190E94A8190E949B1EAF91BF9120
:100C6A008F919F910E949D19E88FF98F6A8F7B8FD0
:100C7A000E9466190E948F197F936F93FF93EF93D7
:100C8A000E9461190E949619AF91BF918F919F910D
:100C9A000E94AD19E88DF98D6A8D7B8DAC8DBD8D65
:100CAA008E8D9F8D0E949B1E0E94B4190E94E91E80
:100CBA000E94B9190E94BE190E94C2190E94C7193E
:100CCA000E9461190E9494200E94BE190E94D117A5
:100CDA000E94CC190E94D5190E94DC190E94E119C0
:100CEA000E9494200E94B3170E94E619E3ECF5EFE4
:100CFA0068E470E40E94E91EE0936D04F0936E04C8
:100D0A0060936F04709370040E94EF190E94C220CE
:100D1A004CF40E94EF19EBEDFFE069E470E40E94E5
:100D2A002E1F48F00E94EF19EBEDFFE069E470EC2A
:100D3A000E942E1F28F40E94F4190E94A51D02C0C9
:100D4A000E94F419E0936D04F0936E0460936F04AB
:100D5A00709370040E94A319E2E5F8EB6EE570E463
:100D6A000E949B1E0E94A3190E949B1EA2E5B8EB3B
:100D7A008EE590E40E949B1E7F936F93FF93EF93FF
:100D8A000E94A819E3ECF5EF68E370E40E949B1E49
:100D9A000E94A8190E949B1EA3ECB5EF88E390E479
:100DAA000E949B1EAF91BF918F919F910E949D19A6
:100DBA00E0937104F0937204609373047093740463
:100DCA000E94BE190E94C2190E94E619EBEDFFE0CB
:100DDA0069E470E40E94E91EA091B104B091B204E2
:100DEA008091B3049091B4040E944B1E0E94FD1995
:100DFA000E94001A0E94031A7F936F93FF93EF9346
:100E0A00A0914405B091450580914605909147050A
:100E1A000E94031AAF91BF918F919F910E944B1E1E
:100E2A00E0937504F09376046093770470937804E2
:100E3A000E94B8204CF40E940A1AE0E0F0E064E94B
:100E4A0072E40E942E1F90F0E0917804EE236AF477
:100E5A000E940A1AE0E0F0E060EA72EC0E942E1F9B
:100E6A0009F010F40C943A0701C009C0442455242F
:100E7A00E6E4F0E03F01E4EBF0E04F0103C0E1E01B
:100E8A00F0E02F01E8960895E5E0E13069F40E9468
:100E9A00131A0E94391AE093A504F093A6046093EA
:100EAA00A7047093A80479C0E23089F40E94131A47
:100EBA000E94621AE093B904F093BA046093BB04E7
:100ECA007093BC040E94731A0E94801A66C0E330B1
:100EDA0081F5E0E0E093BD04E093BE04E093BF0433
:100EEA00E093C004E093C104E093C204E093C30416
:100EFA00E093C404E0E0F0E060E771EC0E948D1A30
:100F0A000E948D1AE093C904F093CA046093CB043B
:100F1A007093CC040E949A1AE0E0F0E060EA71E46F
:100F2A00E093A504F093A6046093A7047093A80421
:100F3A0034C0E43069F40E94131A0E94391AE0930B
:100F4A00A504F093A6046093A7047093A80425C08F
:100F5A00E53089F40E94131A0E94621AE093B904D8
:100F6A00F093BA046093BB047093BC040E94731A92
:100F7A000E94801A12C0E63081F40E94131A0E945D
:100F8A009A1AE0E0F0E060EA71E4E093A504F093D5
:100F9A00A6046093A7047093A80408950E94B31A44
:100FAA00ACEEB4E00E94C11AAEEEB4E00E94C11ADF
:100FBA00A0EFB4E00E94C11AA2EFB4E00E94C11AE5
:100FCA00A091EC04B091ED04AB3FE0E0BE0710F451
:100FDA000C94E6080E94C71AE0E0EA83EB83A0912A
:100FEA00FA04B091FB040E945619EA1BFB0BE0932A
:100FFA00F604F093F704A091F804B091F9040E9462
:10100A00CC1AEA1BFB0BE093F404F093F5040E945C
:10101A00CC1AE093F804F093F9040E945619E0936D
:10102A00FA04F093FB04E0E0E093EC04E093ED04AF
:10103A00A091F604B091F704E091FE04F091FF0448
:10104A00EA1BFB0BEA83FB83A0910A05B0910B050F
:10105A000E94DC1F0E94D11AEA0FFB1F0E94D61AB7
:10106A000E94D11AA536E0E0BE0724F0E4E6F0E0DB
:10107A000E94D61A0E94D11AAC39EFEFBE0724F4A7
:10108A00ECE9FFEF0E94D61AEA81FB81A0910805DC
:10109A00B09109050E94DC1FEC59FF4F0E94D11A3A
:1010AA00EA0FFB1FE0930605F0930705A0910605DA
:1010BA00B0910705A030E1E0BE0734F0EFEFF0E0B1
:1010CA00E0930605F0930705A0910705AA232AF4E1
:1010DA00E0E0E0930605E0930705A091F404B091DF
:1010EA00F504E091FC04F091FD040E942719E881BF
:1010FA00F981A0910E05B0910F050E94DC1F0E9494
:10110A00DB1AEA0FFB1F0E94E01A0E94DB1AA536BF
:10111A00E0E0BE0724F0E4E6F0E00E94E01A0E9454
:10112A00DB1AAC39EFEFBE0724F4ECE9FFEF0E94BB
:10113A00E01AE881F981A0910C05B0910D050E9491
:10114A00DC1FEC59FF4F0E94DB1AEA0FFB1FE093EA
:10115A000405F0930505A0910405B0910505A0309A
:10116A00E1E0BE0734F0EFEFF0E0E0930405F0931E
:10117A000505A0910505AA232AF4E0E0E0930405F9
:10118A00E0930505E091FE04F091FF04309729F001
:10119A00E0910605F091070502C0E0E0F0E0F9BD34
:1011AA00E8BDE091FC04F091FD04309729F0E0914C
:1011BA000405F091050502C0E0E0F0E0FBBDEABDE0
:1011CA002496A091EE04B091EF041B9720F0A09111
:1011DA001C05A13009F025C022970E94E51A0E9439
:1011EA00E91AA0911A05B0911B050E942719E091EE
:1011FA001805F0911905A881B981EA17FB0758F477
:10120A004CDC66DCE0E0E0931C050E94E91AE093FE
:10121A001A05F0931B05E0E0E093EE04E093EF0477
:10122A002296A091F004B091F1041B9720F0A091AE
:10123A002105A13009F025C022970E94E51AA09144
:10124A001F05B09120050E94CC1A0E942719E0912F
:10125A001D05F0911E05A881B981EA17FB0758F40C
:10126A001CDC36DCE0E0E09321050E94CC1AE09316
:10127A001F05F0932005E0E0E093F004E093F10409
:10128A002296A091F204B091F304129728F0E0E0BC
:10129A00E093F204E093F3040E94EF1A18952C9756
:1012AA000E947C190E94FD1A0E94DC190E948A1968
:1012BA000E94FD1A0E94FD190E94081B0E940D1B24
:1012CA000E944B1EDF01CB010E949B1E7F936F93EE
:1012DA00FF93EF930E94121B7F936F93FF93EF93F9
:1012EA000E94121BAF91BF918F919F910E949B1EEA
:1012FA00AF91BF918F919F910E949D190E94CC1925
:10130A00E0E0F0E060E070E40E942E1F18F4E0DBF9
:10131A00C4DB13C00E94181BE0E0F0E060E471E453
:10132A000E949B1EA0E0B0E080E090E40E949B1E19
:10133A000E94DA1D0E941D1BD7DB21970E94241BE5
:10134A00E1EAF2E0FA93EA93ED85FE856F85788902
:10135A000E94291B0E94311BE8EBF2E0FA93EA9300
:10136A000E947C190E94A41F0E94291B0E94311B03
:10137A00E7ECF2E0FA93EA930E948A190E94A41F0A
:10138A000E94291B0E94311BE6EDF2E0FA93EA93D0
:10139A0080E00E9444162496E8830E94241BEA8176
:1013AA00EA93B7D9219631C20E94CA2010E020E000
:1013BA0030E0989B44C00E948112E5E0F0E0EC1511
:1013CA00FD05E1F50E94361BE0916B04F0916C0477
:1013DA000E943E1BE4E0F0E00E94361BE0916904A3
:1013EA00F0916A040E943E1BE3E0F0E00E941D1B9C
:1013FA00C3D90E947C190E943E1BE2E0F0E00E94E1
:10140A001D1BBAD90E948A190E943E1B0E94421BC8
:10141A000E94421BB1D9E0916504F09166040E94D2
:10142A003E1B0E94471B0E94421BA6D9E0916704FB
:10143A00F09168040E943E1B0E944C1BBACFE22F17
:10144A00E4C41A930A930E94521B0E94581BECE6AA
:10145A00F2E00E943019AC9AAD9A989B60C0E4E021
:10146A00EA9349DAE093DE04F093DF04E5E0EA93D5
:10147A0042DAE093E004F093E1040E945E1BE091FB
:10148A00DE04F091DF040E942C190E94421B0E9484
:10149A00611BE091E004F091E1040E942C19A091F3
:1014AA00DE04B091DF04AB3FE0E0BE0730F0E6E1D6
:1014BA00EA93EDDAEAE00E94671BA091E004B0919A
:1014CA00E104AB3FE0E0BE0730F0EAE0EA93DFDA9E
:1014DA00E6E10E94671BA091DE04B091DF04ECE212
:1014EA00F1E00E94AE1F0E2EA091E004B091E1043B
:1014FA00ECE2F1E00E94AE1FE02131F0E6E1EA936E
:10150A00C0DAE6E1EA93D5DA0F5F1F4F0333E0E072
:10151A001E0720F000E010E00E94701B9ECF099188
:10152A00199108950E94CA2000E010E020E030E0FE
:10153A0000E010E00530E0E01E075CF40E94741B36
:10154A00AE0FBF1FE0E0F0E0ED93FC930F5F1F4F7B
:10155A00F1CF20E030E02233E0E03E0714F00C94B3
:10156A00F90AE0E0EA93C7D9A091E204B091E30452
:10157A00EA0FFB1FE093E204F093E304E1E0EA934D
:10158A00BAD9A091E404B091E504EA0FFB1FE093F5
:10159A00E404F093E504E2E0EA93ADD90E947A1BF1
:1015AA00EA0FFB1FE093E604F093E704E3E0EA9313
:1015BA00A2D9A091E804B091E904EA0FFB1FE093D5
:1015CA00E804F093E904E7E0EA930E948004A0911A
:1015DA00EA04B091EB04EA0FFB1FE093EA04F093EC
:1015EA00EB042F5F3F4FB7CF00E010E00530E0E09B
:1015FA001E07ACF40E94741BEA0FFB1FBF010E9476
:10160A00741B0E947F1B7996DF01E2E3F0E00E94DF
:10161A00F91FDB01ED93FC930F5F1F4FE7CFF5C373
:10162A0026970E94E51AE0E0EA83EB83EC83ED83D8
:10163A000E94C82010E020E030E00E94521B0E9465
:10164A00421B0E94C103E7E7F2E00E9430190E94A0
:10165A00421B0E94581BE2E8F2E00E943019AC9A41
:10166A00AD9A0E94841B153068F40E948D1B0E945B
:10167A007F1B4E175F0720F40E948D1B0E94941B4C
:10168A001F5FF1CF202F3327989BBDC00E94841B78
:10169A00153068F40E948D1B0E947F1B4E175F074E
:1016AA0020F40E948D1B0E94941B1F5FF1CF0E94A1
:1016BA009A1BE21BF30BDF0132972CF4FD01EF3F7B
:1016CA00AFEFFA070CF434C00E949A1B309749F422
:1016DA000E949D1B0E94A11BE1E0F0E0EE83FF83C4
:1016EA0025C0E130A0E0FA0729F40E949D1B0E9460
:1016FA00A51B1CC0E230A0E0FA0729F40E94A91B2E
:10170A000E94A51B13C0E330A0E0FA0729F40E9447
:10171A00A91B0E94AD1B0AC0E430A0E0FA0731F40D
:10172A000E94B11BE1E0F0E0E887F987202F332718
:10173A00A885B985119719F40E94B61B09F41FC030
:10174A000E94B11B0E94841B153068F40E948D1BF5
:10175A000E947F1B4E175F0720F40E948D1B0E9478
:10176A00941B1F5FF1CF202F33270E947A1BA53FBE
:10177A00E1E0BE0718F0E0E0E887E987D9CFAE815B
:10178A00BF81119719F40E94B61B09F421C00E9467
:10179A009D1B0E94A11B0E94841B153068F40E94A5
:1017AA008D1B0E947F1B4E175F0720F40E948D1B22
:1017BA000E94941B1F5FF1CF202F33270E947A1BB0
:1017CA00A53FE1E0BE0718F0E0E0EE83EF83D7CF54
:1017DA000E94BB1B0E949A1B0E943E1B0E94C01BB8
:1017EA005A934A930E946004EA85FB853196EA87F8
:1017FA00FB87AA85BB855F9728F0E0E0EA87EB873D
:10180A000E94701B41CF0E94CF202C960895E79723
:10181A0087E3A0E0B0E0EEE4F2E00E94D6200E9466
:10182A00C82000E010E020E030E040E050E00E94F4
:10183A00521B0E94421B0E94C103EAE8F2E00E9486
:10184A0030190E94421B0E94581BE5E9F2E00E94EF
:10185A003019AC9AAD9A0E94C51B0530E0E01E070C
:10186A008CF40E94741B0E947F1B0E94D21B38F4C6
:10187A000E94741B0E947F1BEBA3FCA3A8010F5FAD
:10188A001F4FEBCF4E835F83E0E0F4E0EBA3FCA3B2
:10189A00EE8FEF8F989B3EC045DE01E010E00530E9
:1018AA00E0E01E078CF40E94741B0E947F1B0E94BA
:1018BA00D21B38F40E94741B0E947F1BEBA3FCA36B
:1018CA00A8010F5F1F4FEBCF0E94BB1BEBA1FCA12E
:1018DA000E943E1B01E010E00530E0E01E079CF488
:1018EA000E94741B0E947F1BAE8DBF8DAE17BF076F
:1018FA0038F40E94741B0E947F1BEE8FFF8F0AA38D
:10190A000F5F1F4FE9CF0E94C01BEE8DFF8D0E9413
:10191A003E1BC0CFE0E0EDA7EEA7EFA7E8AB02DEE3
:10192A0000E010E00530E0E01E0714F00C94E40C2F
:10193A000E94741B0E947F1B66277727E9ABFAABCC
:10194A006BAB7CABA9A9BAA98BA99CA9A831E1E088
:10195A00BE07E0E08E07E0E09E0744F4E1E0F0E035
:10196A0060E070E0EDA7FEA76FA778ABF801A8EEDC
:10197A00B3E00E94DC1FDF01E9A9FAA96BA97CA9DF
:10198A000E94A91F0E94E11FA9A5BAA58BA59CA523
:10199A000E94881FE9A7FAA76BA77CA7E9A9FAA959
:1019AA006BA97CA9ADA1BEA18FA198A50E94881F91
:1019BA00EDA3FEA36FA378A70F5F1F4FB3CFADA50B
:1019CA00BEA58FA598A90E94D71B01F5EDA1FEA17E
:1019DA006FA178A5A9A5BAA58BA59CA50E943620BA
:1019EA00662777270E94A41FEDABFEAB6FAB78AFDB
:1019FA00E0E0EDA7EEA7EFA7E8ABE9A7EAA7EBA718
:101A0A00ECA7EDA3EEA3EFA3E8A719C0A9ADBAAD61
:101A1A008BAD9CADA039E7E0BE07E0E08E07E0E0C1
:101A2A009E072CF0E0EDF7E060E070E004C0E8E02B
:101A3A00F7E060E070E0EDABFEAB6FAB78AFADA95D
:101A4A00BEA98FA998ADEFE8F7E060E070E00E94C8
:101A5A008D1F0E94111E0E94C7190E94DF1BE0E021
:101A6A00F0E068EC72E40E942E1F09F010F40C9466
:101A7A00400D0E94C7190E94DF1BE0E0F0E068EC0D
:101A8A0072EC0E942E1F10F40E94C7190E94DF1BDD
:101A9A00E0E0F0E06CE072E40E94E41B0E94B919F5
:101AAA000E94ED1BE0E0F0E060EC70E40E942E1F63
:101ABA0009F010F40C94630D0E94B9190E94ED1BF1
:101ACA00E0E0F0E060EC70EC0E942E1F10F40E943F
:101ADA00B9190E94DF1BE0E0F0E060EE70E40E94BA
:101AEA00E41B7F936F93FF93EF930E94181B0E944E
:101AFA00D519DF01CB01E0E0F0E060EF71E40E946C
:101B0A00E91EAF91BF918F919F910E94AD190E94DA
:101B1A00F21B0E942E1F09F010F40C949A0DE0E0BB
:101B2A00F0E060E171E40E94F81B0E94B419E0E061
:101B3A00F0E060E271EC0E942E1F30F4E0E0F0E089
:101B4A0060E171EC0E94F81BEC89FD896E897F893E
:101B5A00A0E0B0E080E291E40E944B1E0E94D81DF2
:101B6A00EA930E9446050E94F21B0E94441E0E94AC
:101B7A00D81DEA930E945E05EDA9FEA96FA978AD6A
:101B8A00E9AFFAAF6BAF7CAF0E94021CE887F98716
:101B9A006A877B87C4CE989BE3C00E94C51B053029
:101BAA00E0E01E078CF40E94741B0E947F1B0E94B7
:101BBA00D21B38F40E94741B0E947F1BEBA3FCA368
:101BCA00A8010F5F1F4FEBCF0E94071C0E94581BF2
:101BDA00EE81FF810E943E1B0E94BB1B5A934A93CF
:101BEA000E9460040E94C01BEBA1FCA10E943E1B44
:101BFA00AE81BF81FA01EA1BFB0BDF0132972CF49D
:101C0A00FD01EF3FAFEFFA070CF43CC0FA01309741
:101C1A0049F40E949D1B0E94A51BE1E0F0E0E88FB9
:101C2A00F98F2EC0E130A0E0FA0749F4E2E0EA9326
:101C3A000E944605E8E0EA930E945E0521C0E23070
:101C4A00A0E0FA0749F4EAE0EA930E944605EAE0CE
:101C5A00EA930E945E0514C0E330A0E0FA0721F47B
:101C6A00E8E00E940C1C0CC0E430A0E0FA0741F442
:101C7A000E94A91B0E94AD1BE1E0F0E0EA8FFB8FF6
:101C8A004E835F83AA8DBB8D119719F40E94B61BF0
:101C9A0009F426C0E4E10E940C1C0E94C51B053011
:101CAA00E0E01E078CF40E94741B0E947F1B0E94B6
:101CBA00D21B38F40E94741B0E947F1BEBA3FCA367
:101CCA00A8010F5F1F4FEBCF4E835F830E947A1BE1
:101CDA00A633E1E0BE0718F4E0E0EA8FEB8FD2CF3B
:101CEA00A88DB98D119719F40E94B61B09F429C061
:101CFA00E2E0EA930E9446050E94A11B0E94C51BCE
:101D0A000530E0E01E078CF40E94741B0E947F1BC2
:101D1A000E94D21B38F40E94741B0E947F1BEBA303
:101D2A00FCA3A8010F5F1F4FEBCF4E835F830E9476
:101D3A007A1BA633E1E0BE0718F4E0E0E88FE98FEA
:101D4A00CFCFEC8DFD8D3196EC8FFD8FAC8DBD8D97
:101D5A005F9728F0E0E0EC8FED8F0E94701B1BCF9D
:101D6A000E94CF20ED9608950E94CA200E94131C5B
:101D7A000E94581BEDE9F2E00E9430190E94421BB2
:101D8A00E9E1F0E00E94161CE7EAF2E00E9430194D
:101D9A00AC9AAD9A989B39C00E941A1CE0913805FA
:101DAA00E03091F10E94071C0E94611B0E94B70457
:101DBA001E2F1A930E94CC03133519F4E0E00E94F7
:101DCA002A1C163419F4E4E60E94311C123441F438
:101DDA00E4E6EA930E944C05E4E6EA930E9462056F
:101DEA00123519F4E4E60E942A1C1C3419F4E0E0C6
:101DFA000E94311C2F5F3F4F293EE3E03E0720F04F
:101E0A0020E030E00E94701BC5CF0E94D1202496AA
:101E1A0008950E94131C0E94581BEDEAF2E00E94EA
:101E2A0030190E94A11BE4E1EA930E944605989B9F
:101E3A0027C00E94381CE8EBF2E00E9430190E9489
:101E4A00071CEDE2F0E00E94161C0E94CC1A0E94C8
:101E5A002C19E3E0F0E00E94F218EFEBF2E00E94A6
:101E6A003019E3E0F0E0FA93EA93EDE2F0E00E9441
:101E7A00161C0E9456190E942C190E943B1CD7CF8F
:101E8A000E946D050E9452050895E0913805E030E0
:101E9A0069F00E94131C0E94581BE6ECF2E00E94B3
:101EAA0030190E94B704EA930E94F704089508952E
:101EBA006097E0E0EABBEBBB0E9403040E94471B69
:101ECA000E94581BE0EDF2E00E943019989B93C0E3
:101EDA00E0E0EA930E948004E883F983E1E0EA9370
:101EEA000E948004EA83FB83E2E0EA930E94800472
:101EFA00EC83FD83E3E0EA930E948004EE83FF8390
:101F0A00E4E0EA930E948004E887F987E5E0EA932F
:101F1A000E948004EA87FB87E6E0EA930E94800435
:101F2A00EC87FD87E7E0EA930E948004EE87FF874B
:101F3A000E945E1BE8EDF2E00E943019E881F98107
:101F4A000E94411C0E94421B0E94451CEBEDF2E0DC
:101F5A000E943019EA81FB810E94411C0E94381CB0
:101F6A00EEEDF2E00E943019EC81FD810E94411CE5
:101F7A000E94071C0E94451CE1EEF2E00E94301903
:101F8A00EE81FF810E94411CE3E0F0E00E94F2181A
:101F9A00E4EEF2E00E943019E885F9850E94411CBE
:101FAA00E3E0F0E0FA93EA930E94451CE7EEF2E0E0
:101FBA000E943019EA85FB850E94411CE4E0F0E0AA
:101FCA000E94F218EAEEF2E00E943019EC85FD85D3
:101FDA000E94411CE4E0F0E0FA93EA930E94451C57
:101FEA00EDEEF2E00E943019EE85FF850E94411C59
:101FFA000E9421196BCF0C942F140E94131CE5E048
:10200A00F0E00E94161CE0EFF2E00E9430190E94F4
:10201A005E1BECEFF2E00E94301908951A93EFEF7D
:10202A00EABB0E94481C39F4AD9AAC9ADC9A0E9429
:10203A003B1CAC985DC0E230A0E0FA0741F4AD9ACF
:10204A00AC9ADE9A0E943B1CAC98DE9852C0E330F0
:10205A00A0E0FA0741F4AD9AAC9ADF9A0E943B1CC1
:10206A00AC98DF9846C0E430A0E0FA0741F4AD9A94
:10207A00AC9ADD9A0E943B1CAC98DD983AC0E530D8
:10208A00A0E0FA0731F4AC9AAD9ADC9A0E943B1CA4
:10209A002EC0E630A0E0FA0741F4AC9AAD9ADE9A77
:1020AA000E943B1CAD98DE9824C0E730A0E0FA07F6
:1020BA0041F4AC9AAD9ADF9A0E943B1CAD98DF9826
:1020CA0018C0E830A0E0FA0741F4AC9AAD9ADD9A5C
:1020DA000E943B1CAD98DD980CC0E930A0E0FA07DD
:1020EA0061F4AC9AAD9ADC9A0E943B1CAC98AD980C
:1020FA00DC98EEE1F0E00E944F1C199108950E94CD
:10210A0003040E94471B0E94581BE9E0F3E00E9467
:10211A003019E5E60E94531CE7E6E5BDE0E0E4BDC0
:10212A00E3BD989B13C0AC9AAD9AE2E0ECBFE3BD65
:10213A00E0EDF7E00E944F1CAC98AD98EAE0ECBFE6
:10214A00E3BDE0EDF7E00E944F1CEBCFE0E00E9418
:10215A00531CE0E0E5BDE4BDE3BD08950E94591CAF
:10216A00E2E1F3E00E9430190E944C1BA091D504D1
:10217A00B091D604119711F00C946D114FDF989914
:10218A006AC0E091DD04EF5FE093DD04A091DD0415
:10219A00AC3018F0E1E0E093DD040E94481C29F419
:1021AA000E94591CEFE1F3E050C0E230A0E0FA07C8
:1021BA0029F40E94591CECE2F3E047C0E330A0E0A6
:1021CA00FA0729F40E94591CE9E3F3E03EC0E4301F
:1021DA00A0E0FA0729F40E94591CE6E4F3E035C0AE
:1021EA00E530A0E0FA0729F40E94591CE3E5F3E080
:1021FA002CC0E630A0E0FA0729F40E94591CE0E658
:10220A00F3E023C0E730A0E0FA0729F40E94591C42
:10221A00EDE6F3E01AC0E830A0E0FA0729F40E94DC
:10222A00591CEAE7F3E011C0E930A0E0FA0729F403
:10223A000E94591CE7E8F3E008C0EA30A0E0FA0778
:10224A0051F40E94591CE3E9F3E0FA93EA930E94DD
:10225A00EA030E944C1B99993AC00E94481C11F447
:10226A00F0D835C0E230A0E0FA0711F47DDD2FC0C6
:10227A00E330A0E0FA0711F4D3D929C0E430A0E092
:10228A00FA0711F4C4DA23C0E530A0E0FA0711F422
:10229A00C0DD1DC0E630A0E0FA0711F409DE17C060
:1022AA00E730A0E0FA0711F402DE11C0E830A0E03E
:1022BA00FA0711F4EADD0BC0E930A0E0FA0711F4DD
:1022CA001EDF05C0EA30A0E0FA0709F46DD84ECF48
:1022DA000895E091B504F091B6046091B704709145
:1022EA00B804AAE4B5E00E94DA1DED93FC93ACE4CD
:1022FA00B5E0E091B904F091BA046091BB04709121
:10230A00BC040E94DA1DED93FC9308952497FE0104
:10231A003496DE0184E00E94AE20FE0184E01FB6FE
:10232A00F89428960895E0E0E2BDEFE0E5BDE2E129
:10233A00E4BDEEEFE3BDE9B7E068E9BF08950E94A6
:10234A00B31A1A9310E00E94A903A0914805AF5F3F
:10235A00A0934805A150A23008F4CAC0E0E0E09377
:10236A004805E9E7F4E0FA93EA930E947003E13042
:10237A0011F00C947D122E9710E01C3160F4A12FFD
:10238A00B0E0A151BC4F0E94FA18E758FB4FE08118
:10239A00EC931F5FF2CF0E945C1C0E9494200E9463
:1023AA00651C0E9494200E94C3160E94D81D6F01CA
:1023BA000E946A1CEFEEF3E0ACE10E9499200E94B1
:1023CA009905DE010E94AE201FBEF601E130A0E0B1
:1023DA00FA0721F4FE01ABE0B4E027C0E230A0E046
:1023EA00FA0721F4FE01A9E1B4E01FC0E330A0E03E
:1023FA00FA0721F4FE01A7E2B4E017C0E430A0E036
:10240A00FA0721F4FE01A5E3B4E00FC0E530A0E02D
:10241A00FA0721F4FE01A3E4B4E007C0E630A0E025
:10242A00FA0731F4FE01A1E5B4E08EE00E94AE2085
:10243A00E5E0F0E0EC15FD0511F00C947C12AC9B84
:10244A0002C0AC9801C0AC9A0E946A1CE1E0E09319
:10245A004905FE01AFE5B4E08EE00E94AE20A091EE
:10246A006104B0916204E0914A05F0914B05AE1BFC
:10247A00BF0BA436E0E0BE0774F4A0916304B091E8
:10248A006404E0914C05F0914D05AE1BBF0BA436D8
:10249A00E0E0BE0704F128970E947C19E883F983DB
:1024AA000E948A19EA83FB83FE01A4E00E94992014
:1024BA002DDFDE0114960E94AE201FBEEC81FD8145
:1024CA00E0936104F0936204EE81FF81E093630478
:1024DA00F093640428960E947C19E0934A05F093CD
:1024EA004B050E948A19E0934C05F0934D052E96F0
:1024FA0019910E94EF1A1895E0E00895AE97E4E06A
:10250A00F0E0E8A3F9A3E6EDFFEFEAA3FBA3E0E31B
:10251A00F0E0ECA3FDA3EDEDFFEFEEA3FFA3EEECDD
:10252A00FFEFE8A7F9A7E0E0EAA7EBA7ECA7EDA77A
:10253A00EFEFEABBEFEBE7BBECEFE4BBE2EFE1BBAB
:10254A00E0E4E7B9E3E8E6B9E1EAEFBDE2E0EEBDCF
:10255A00E0E0EDBDECBDE7BDE6BDEBBDEABDE9BD22
:10256A00E8BDE4E0E9BF00E0013020F40E941A1C53
:10257A000F5FFACF0E9474040E9479040E94D40269
:10258A000E9464030E943C050E941C05CCDEA1DE69
:10259A0078940E94471B0E94581BE0EAF3E00E94CD
:1025AA0030190E945E1BEBEAF3E00E9430199899F9
:1025BA001DC0A7EDB4E00E94C11AA091D704B09142
:1025CA00D8041B9770F0989BFECFE0E0E093D70405
:1025DA00E093D804E1E0F0E0E093D504F093D60468
:1025EA00BDDDE4E6F0E00E944F1CE1CF0E94381CFA
:1025FA00E8EBF3E00E9430190E9449070E94741C1C
:10260A000E94741C0E94D6050E945409F7CFFFCF7E
:10261A00E991F991A991B991CD0105900D92002006
:10262A00E1F7FC010895A991B991EE27FF276D9171
:10263A00662311F03196FBCF0895AA27BB27E991AB
:10264A00F9910590002011F01196FBCFFD01089534
:10265A00E881EFB9779BFECFEFB1219608951A93DF
:10266A000A93AA81BB8112960E947B20309729F196
:10267A00AA81BB8114960E947B208F01309761F05A
:10268A000230E0E01E07C0F0F80131978F01AA81FD
:10269A00BB811496ED93FC93AA81BB8112960E948A
:1026AA00C11A3197AC81A083AA81BB810E947B2089
:1026BA00FF2312F00E94C11A06C0AA81BB81EFEF64
:1026CA00FFEFED93FC9319810881259608950E94E6
:1026DA00C71AE0E8EA83EFE3EB830E94CA20EE859B
:1026EA00FF85EF3FAFEFFA0749F4E885F985FA93DA
:1026FA00EA93E6E1F4E00E947B1CAAC0EF3FAFE751
:10270A00FA0749F4E885F985FA93EA93E7E1F4E0F0
:10271A000E947B1C9DC0AB85A73010F0E6E0EB87DA
:10272A001B85E12F1150E03019F00E947F1CF9CF70
:10273A000E94021C0E94BE2021F430E00E947F1CED
:10274A0028C03B850E94841C09F010F40C94B6132F
:10275A000E947F1C0E94841C18F00E94891CFACFD8
:10276A000DC00E94841C40F40E94DF1B0E94931C2F
:10277A000E94C7193150F5CF0E947F1C0E94021C8B
:10278A000E94971C0E94C7190E94841C10F00E9484
:10279A00891C10E0EB85E11778F10E94EF190E947D
:1027AA009E1C0E94971C0E94A51C0E94DC190E9474
:1027BA00081B0E94DF1B0E94E91E0E94D81D0E2FD3
:1027CA000E94A91CE02FE05DEC93E02FFF2766270B
:1027DA0077270E94111E0E94B01C0E94DF1B0E94D4
:1027EA00B41C0E94C719E12F1F5FE03099F60E94BE
:1027FA00A91CEEE2EC93CECF0E94B91C3197AA85B0
:10280A00A08330302CF43195A885B985EDE203C058
:10281A00A885B985EBE2EC930E94B91C0E94B91C09
:10282A003197BF01A32FEAE00E94F41FE05DDB01AC
:10283A00EC930E94B91C3197BF01A32FEAE00E94D2
:10284A003B20E05DDB01EC93A885B985E0E0EC93E1
:10285A000E94D12060960895EF9761970E94C82040
:10286A0010E0FE01E85AFF4F0190F081E02DE88761
:10287A00F987FE01EA5AFF4F0190F081E02DEE83BD
:10288A00FF83AE81BF81E0E0F0E0ED93FC93DE01CF
:10289A00A45ABF4F0E94C11A3197E4912E2FE030FB
:1028AA0011F40C943B16E12FE03039F4253211F47F
:1028BA0011E002C00E94BF1CD8C1E130C1F4253228
:1028CA0019F40E94BF1CD0C112E0E0E0ED8B00E0D9
:1028DA002D3211F401E0C9C12B3219F4EBE2ED8B70
:1028EA00C4C1203219F4E0E2ED8BBFC102C0E2306C
:1028FA0039F450E013E0203311F40068B6C102C085
:10290A00E33091F4203310F02A3308F007C0AAE02C
:10291A005A9F502DE22FE0535E0FA7C140E02E329E
:10292A0011F414E0A2C10FC0E43099F4203310F07E
:10293A002A3308F008C00062AAE04A9F402DE22F1D
:10294A00E0534E0F92C12C3619F4026015E08DC186
:10295A0004C0E53011F00C943A16E22FE33659F42C
:10296A000E94C81C0E94CF1C0E94C81CA481AA9362
:10297A000E94D61C79C1E53411F0E53609F404C089
:10298A00E63611F00C941315FE017696EE87FF8752
:10299A000E94DE1C0E947F200E94E51C0E94EA1C05
:1029AA00AD85AA2322F0AD89AB3249F017C00E9447
:1029BA00EC1C0E94A51D0E94E51CEDE2ED8B07FFB1
:1029CA0005C0ED89EA930E94D61C08C0EE85FF85F2
:1029DA003196EE87FF873197AD89A08305FF46E0E0
:1029EA00263661F40E94EC1C0E9494204A93EB89DB
:1029FA00FC89FA93EA930E941A180BC00E94EC1CF5
:102A0A000E9494204A932A93EC89FD89FA93EA93C7
:102A1A005EDEFE0176960E94F11C1EC0E33739F491
:102A2A000E94EA1C0E94F91C0E94F11C0EC0E037A9
:102A3A00C1F40E94EA1C0E94F91CEE87FF87FA93F0
:102A4A00EA930E9422131E2F08600F77403011F07C
:102A5A00411708F001C0142F40E0E0E0EC8B30E0B1
:102A6A006EC0E43611F0E93611F4046002C0E537AD
:102A7A00A1F4EAE0EC8B01FF08C0E0E0FAEC6AE9B5
:102A8A007BE30E94B9191AE023C0E0E1F7E260E0B3
:102A9A0070E00E94B91915E01BC0E83511F408600E
:102AAA0004C0E83711F00C943916E0E1EC8B01FF11
:102ABA0008C0E0E0F0E060E070E10E94B91918E0B7
:102ACA0007C0E0E0F0E160E070E00E94B91914E0AC
:102ADA00403011F00F7701C041E001FF08C00E94A9
:102AEA00EA1C0E94DE1C14960E947F200FC002FF7F
:102AFA0007C00E94EA1C0E94F91C0E94A41F06C07B
:102B0A000E94EA1C0E94F91C66277727EA87FB873E
:102B1A006C877D8702FF12C0AD85AA2342F40E940A
:102B2A00EC1C0E94961F0E94E51CEDE2ED8BED89DC
:102B3A00E03019F01F5F4F5F01C00B7F342F00FD9B
:102B4A0014C0151710F4351708F00FC007FF08C096
:102B5A0002FF04C00B7F2D89115001C020E301C080
:102B6A0020E20E94BF1C5150ECCF141790F4006170
:102B7A0002FF06C00E94FE1C09F05150115041503C
:102B8A00E0E3EA930E94D61C503009F051504150BC
:102B9A00ECCF312FEC89E030B9F43030A1F003FFEB
:102BAA0006C0EE85FF852591EE87FF8705C0AE85B5
:102BBA00BF852D91AE87BF870E94BF1C503009F098
:102BCA0051503150EACF46C00E94121D0E94112076
:102BDA002E2F2A3030F003FF02C0295C01C0295A87
:102BEA0001C0205D04FD1AC0213328F40E94ED1BA8
:102BFA000E94D71B09F40BC0431740F4531710F077
:102C0A0000FF01C010C020E207FF08C020E30061F6
:102C1A0002FF04C00E94FE1C09F051500E94BF1C12
:102C2A00503009F0515031500E94121D0E944A2022
:102C3A000E94E51CEC890E94ED1BFF276627772777
:102C4A000E9411200E94B9190E94E1190E94BE2017
:102C5A0009F0BACF00FF08C0503031F05150E0E21D
:102C6A00EA930E94D61CF8CF10E011CEAE81BF8144
:102C7A000E947B200E94CF20EF966F960895FF92C4
:102C8A00F82E26970E94CA200E94181D309719F420
:102C9A00EFEFFFEF25C0DE0116960E94841F8D011B
:102CAA000E94181DEE83FF83E0E0E887E987DE01D2
:102CBA001A960E94841F0E947B20FA93EA931A9321
:102CCA000A93E4E3F3E1FA93EA93FE013A96FA935C
:102CDA00EA93C2DD9F01AE81BF81E0E0EC93F90186
:102CEA000E94D1202A96FF9008957B816A81F981FA
:102CFA00E88177FB770F67FD7160972F9E5781F008
:102D0A0078F0983190F4AA27BB27882708948795EA
:102D1A00B795A7959A95D1F7EA23FB23682305C0AF
:102D2A00E8947727EE27FF2766276F77769508F4CA
:102D3A00606877F9A991B99189919991EA17FB0786
:102D4A006807790797FB08950E941F1D0E94221D9C
:102D5A0019F40E941F1D1EC1E6F70E94271D18C103
:102D6A000E941F1D0E94221D19F40E941F1D12C1DC
:102D7A00E6F30E94271D0E944B1E0CC124970E9455
:102D8A00081B0E94BE2029F4E0E0F0E060E070E059
:102D9A004AC10E94291D0E941F1D0E94BE2029F4BB
:102DAA00E0E0F0E060E070E03EC10E94001A0E949C
:102DBA00C2202CF40E941F1D0E94A51C03C00E9461
:102DCA002E1DCEDF0E948F200E941F1D0E94B01C64
:102DDA000E94181B0E94B41C26C124970E94081B3B
:102DEA000E94B01C0E94FD190E941F1DA5E6B0EDAD
:102DFA008BEC90E40E94321D0E94B01C7F936F936B
:102E0A00FF93EF930E941F1DA0E0BDE689E291E4C3
:102E1A000E944B1E0E94001A0E94321DAF91BF9160
:102E2A008F919F910E94E91E289608950E94001A88
:102E3A00EDECF3E164ED7EE30E942E1F20F40E9484
:102E4A002E1DCBDFA7C00E94001AEAE7F2E86AE16A
:102E5A0070E40E942E1F09F010F40C9439170E9496
:102E6A00271D0E943B1D8EC00E94121B7F936F93E9
:102E7A00FF93EF930E94271D0E944B1EAF91BF91B3
:102E8A008F919F910E943B1DABEDBFE089E49FE3C8
:102E9A000E944B1E7FC024971A9310E00E94411D86
:102EAA000E94461D48F00E94411D0E944D1D19F0C6
:102EBA0010F00C94611703C00E94541D4CC0A885E1
:102ECA00AA234AF40E94591D0E94A51DED83FE8380
:102EDA006F83788711E00E94591D0E94411D0E944C
:102EEA009B1E0E940D1B0E94B41C0E9494200E94EB
:102EFA004E1FE983FA836B837C830E94411DE3EFB3
:102F0A00F4E065E37FE30E942E1F09F010F40C94AD
:102F1A009D170E94591DA981BA818B819C810E94AB
:102F2A005E1DABEDBFE089EC9FE30E94B41C06C0B6
:102F3A000E94641D0E94411D0E945E1DE983FA835E
:102F4A006B837C83103029F00E94641D0E94A51DAA
:102F5A0002C00E94641D1881299608950E94001AD1
:102F6A000E94461D48F00E94001A0E944D1D19F049
:102F7A0010F00C94C11703C00E94541D0BC00E948C
:102F8A002E1D89DFABEDBFE089EC9FE30E94A120F3
:102F9A000E94441E2496089524970E94081B0E94AA
:102FAA00BE20C9F4E885F9856A857B850E94BE2022
:102FBA0019F40E94541D37C00E94181B0E94C22097
:102FCA002CF4EBEDFFE069EC7FE32DC0EBEDFFE0C5
:102FDA0069EC7FEB28C00E94291D0E94EF190E940C
:102FEA00C22064F4AB85AA2322F00E942E1D1EDFA4
:102FFA001AC00E94691D0E94A51D15C0AB85AA238F
:10300A004AF00E94691DABEDBFE089E490E40E949A
:10301A00B41C09C00E942E1D09DFABEDBFE089E494
:10302A0090EC0E944B1E2C960895ACD2E0E0EA8305
:10303A00EFE3EB831A930A93EB85FC85EF3FAFEF3F
:10304A00FA0729F448D5EEE1F4E050D485C0EF3F01
:10305A00AFE7FA0729F43FD5EFE1F4E047D47CC0A3
:10306A00AC85AA2352F4E985FA856B857C850E9492
:10307A00A51D36D53AD5EDE2EC93A885A73010F018
:10308A00E6E0E8871885E12F1150E03021F034D5C9
:10309A0050D437D5F8CF3AD50E944B1E21D510E02F
:1030AA00E0E0F0E060E87FE32CD530D50E942E1FE7
:1030BA0060F022D533D425D51F5F173228F00BD5FF
:1030CA00E3E2F4E013D448C0F0CF103021F40DD578
:1030DA00E0E3EC931FC0E12F1150E030D9F00CD59A
:1030EA0028D420D42DD40DD511D50E94E91E0E94D2
:1030FA00D81D0E2FFAD4E02FE05DEC9316D3FCD442
:10310A000E94A41F0E94111E0E949B1E08D527D44C
:10311A00E7D4E1CFE885E030D9F0E7D4EEE2EC93EA
:10312A00E885E150E887EF5F99F0F9D4F7D3D8D46E
:10313A00E985FA856B857C850E94D81D0E2FD5D42A
:10314A00E02FE05DEC93F1D2EAD4D6D0C9D4E8CF2F
:10315A00AE81BF81E0E0EC93198108812D96089534
:10316A00FA93EA93E5E0F0E0FA93EA930C944703C2
:10317A00EA930E9409031E2F0895EA930E94B4035A
:10318A00E0E0EA9308951A930A9300E010E0E1E080
:10319A00EA93E0E0EA930E94B40300E010E00895A5
:1031AA00E1E0EA93EB81F0E0B097A5E0B0E00E949D
:1031BA00B41FEC5AFF4FE00FF11FE491EA930C940D
:1031CA00B403EA93E0E0EA930C94B4031A930A93E3
:1031DA0000E010E000E010E00895FA93EA93E0E0DE
:1031EA00F0E0FA93EA930C94C103E12FF0E008951A
:1031FA00DE011196EA0FFB1FBF01AE81BF81EAE033
:10320A00F0E00E944720DB01EC93AE81BF81EAE047
:10321A00F0E00E94F91FEE83FF830895A4E0B0E076
:10322A000E94A720EA1BFB0BDE011196AE0FBF1FFF
:10323A00EC91E05DEA930895E8EEF3E0FA93EA93FD
:10324A000C94991DEA1BFB0BE883F9830895FA9302
:10325A00EA930C944804FA93EA930C94EA03E15033
:10326A00F0E0E25DFA4F0895E150F0E0E75CFA4FD2
:10327A000895AA93BA93EA93FA93EFB7EA93089553
:10328A00E0E0E0930005E0930105E0930205E09396
:10329A0003050895E881F0E0E093FC04F093FD044F
:1032AA000895E0912C05F0912D050895AE0FBF1FEA
:1032BA00FD01F695E7950895E8A1F9A16AA17BA118
:1032CA000895ECA1FDA16EA17FA10895E8A5F9A535
:1032DA006AA57BA50895E8A9F9A96AA97BA9089511
:1032EA00EA1BFB0B0E94A41F0E94111E0895E09185
:1032FA006104F091620408950E94A41F0E94111EA5
:10330A000E94A1200E94441E0895E0916304F09156
:10331A0064040895ACA5BDA58EA59FA50E949B1E19
:10332A000895A8A5B9A58AA59BA50E949B1E0895E4
:10333A000E944B1E0E9494200C944E1FACA1BDA16A
:10334A008EA19FA10895A8A1B9A18AA19BA10895C0
:10335A000E944B1EEC8BFD8B6E8B7F8B0895AC8984
:10336A00BD898E899F890895E88BF98B6A8B7B8B3F
:10337A000895ACDF0E9494200895ADDF0E94942046
:10338A000C94D117EC87FD876E877F870895E887AD
:10339A00F9876A877B87A885B9858A859B85089579
:1033AA00EC85FD856E857F850E94441E0895EC8319
:1033BA00FD836E837F830895E889F9896A897B8909
:1033CA000895A0E0B0E084E393E40E949B1EDF012D
:1033DA00CB010895AC81BD818E819F810895E091D2
:1033EA006D04F0916E0460916F04709170040895F9
:1033FA000E948F2008950E948A200895E0E0F0E05C
:10340A0060E07FE30E949B1E0895A0917504B0912D
:10341A00760480917704909178040895E0E0E0932F
:10342A00BD04E093BE04E093BF04E093C004E093BC
:10343A00C104E093C204E093C304E093C404E0E04F
:10344A00F0E063E373E4E093C504F093C604609389
:10345A00C7047093C804E093C904F093CA04609344
:10346A00CB047093CC040895EAE9F9ED66E873E4B5
:10347A00E093B504F093B6046093B7047093B8046C
:10348A00EAE9F9E969ED7FE3E093B904F093BA0454
:10349A006093BB047093BC04E0E0F0E060EA72E47D
:1034AA00E093A104F093A2046093A3047093A4048C
:1034BA00E0E0F0E062E873E40895E0E0F0E064E858
:1034CA0072E4E093B504F093B6046093B704709382
:1034DA00B804EDECFCEC6EE972E40895E0E0F0E08B
:1034EA0067E873ECE093A104F093A2046093A30449
:1034FA007093A4040895E0E0F0E067E873E4E093D1
:10350A00A504F093A6046093A7047093A8040895F1
:10351A00E093C504F093C6046093C7047093C8048B
:10352A00E0E0F0E063E373E40895E6E6F6E668E5D2
:10353A0072E4E093B504F093B6046093B704709311
:10354A00B804EDECFCEC67EC72ECE093B904F09390
:10355A00BA046093BB047093BC04C0CF0A921A9257
:10356A00FA926A937A938A939A93AA93BA93EA936A
:10357A00FA93EFB7EA930895ED91FD913196FE9390
:10358A00EE9308952497E0E0E883E9830895E091B3
:10359A002A05F0912B050895A0910005B091010527
:1035AA000895E0930005F09301050895A09102059E
:1035BA00B09103050895E0930205F0930305089579
:1035CA00E0E0E883E9830895E2DFA0912C05B09159
:1035DA002D056CCEE991EFBFF991E991B991A991C5
:1035EA009991899179916991F99019900990089521
:1035FA000E94A41F0E94111EA5E9B5E688E09DE37A
:10360A000E949B1E0895EC81FD816E817F81089541
:10361A00A0E0B0E080E89FE308950E948520F8DFEB
:10362A000E94441E0895A885B9858A859B850895B8
:10363A00FA93EA93E4E1F0E0FA93EA930895EFEC5F
:10364A00F3E0FA93EA9308950E94942084E00E949A
:10365A0044162896E883F3CFEA81EA930E948E0300
:10366A00EECFFA93EA93E8E2F0E0FA93EA930C9445
:10367A00C103FA93EA930C946004E1E0F0E0FA9350
:10368A00EA930895E0E0F0E0FA93EA930895E8EC0B
:10369A00F0E0FA93EA930C94991DE0E0EABBEBBBE5
:1036AA000E94F603EFCFEAE0F0E0FA93EA930C9473
:1036BA00C103E1E0F0E091CDEAE2F0E0FA93EA93A7
:1036CA000C94C103EA930E946205E8E5F2E0FA93DA
:1036DA00EA930C94991D0E94A3030C94A903F80180
:1036EA00A2EEB4E0EE0FFF1F0895A091E604B09198
:1036FA00E7040895AE0FBF1F0E947B2008950E9421
:10370A00970A4091E2045091E30400E011E0089521
:10371A00E12FA2EEB4E0F0E0EE0FFF1F0895AE0F26
:10372A00BF1F4D915C91012F0895E02FF0E008959D
:10373A00E1E0EA930C944605E4E1EA930C945E0511
:10374A00EFE0EA930C945E05EFE0EA930C944605E9
:10375A00E1E0EA930C945E05E4E1EA930E944605EF
:10376A00F7CFA0E09899A1E0A0300895E3E0F0E057
:10377A00FA93EA9398CFE4E0F0E0FA93EA9393CFCE
:10378A000E94970AE091E204F091E304EBA3FCA300
:10379A0040E050E001E010E00895ABA1BCA1EA17B7
:1037AA00FB070895A130E0E0BE07E0E08E07E0E005
:1037BA009E070895AC85BD858E859F8508950E94D4
:1037CA00E91EA889B9898A899B890E944B1E089596
:1037DA00A889B9898A899B890895C1DDE0E0F0E06A
:1037EA0060E271E40895EC8BFD8B6E8B7F8BE0E0D9
:1037FA00E88BE98BEA8BEB8B0895EC85FD856E856A
:10380A007F850895E2E0F0E0FA93EA930895EA9357
:10381A000E944605E2E0EA930C945E050E94F603D4
:10382A0031CFFA93EA930C94C103AC9AAD9AE4E6C9
:10383A00F0E0FA93EA930E94991DAC98AD98E4E6F9
:10384A00F0E0FA93EA930C94991DEA930E944605D4
:10385A00E0E0EA930C945E05EA930E944605E4E6EA
:10386A00EA930C945E05E2E0F0E0B7CCEAE0F0E01F
:10387A00FA93EA930C94991DFA93EA930C9416041A
:10388A00EBE2F0E0CECFE091DD04F0E0E130A0E041
:10389A00FA070895FA93EA930C94991DE3BFE0E0BE
:1038AA00E2BFECBFE2BD08950E940210DCCFE091B6
:1038BA00EF03F091F0036091F1037091F203089520
:1038CA00E0E0F0E060E271E40895F1DF0E94DA1DC1
:1038DA00DF01EAE0F0E00E940C205F010895E0E0D9
:1038EA00F0E060E070E00E9494200895FA93EA9371
:1038FA000C940D136FDDE4DF0E949B1E58CD83DE0E
:10390A0059DF0E942E1F089555DFEDECFCEC6CEC9C
:10391A007DE30E949B1E36DD3F5F0895D1DF0E9442
:10392A009B1E0895A0E0B0E080E09FE30E944B1E3A
:10393A000895EDECFCEC6CEC7DE30E949B1E08956F
:10394A000E9494200C94A916A885B9851196A88777
:10395A00B987119708953EDD0E949B1E08950E9423
:10396A00A1200E94441E0895E885F9853196E887CA
:10397A00F98708952A93EF81F885FA93EA93EB85FC
:10398A00FC8509950895FE01E65AFF4F0190F081E2
:10399A00E02D08953497DE01A65ABF4FED93FC93AC
:1039AA000895EF81F885FA93EA93EB85FC850995EA
:1039BA000895DE01A65ABF4F0D90BC91A02D08951F
:1039CA00EA87FB876C877D870895DDDFE3CFEA8589
:1039DA00FB856C857D850895EE87FF87FA93EA93C8
:1039EA000E9418131E2F0895E4DF14960E947B206C
:1039FA0008950B7FED89EA93FE01E95AFF4F019082
:103A0A00F081E02DFA93EA93FE01E55AFF4F019007
:103A1A00F081E02D099550300895CEDCAA85BB854A
:103A2A008C859D850895DE011C960E94841F0E9444
:103A3A007B2008950E94852008950E9494200E9468
:103A4A007A16D6CCF7DFE4CDDEDDEDDD0E94E91E85
:103A5A00CFCCF0DF0E94942008950E949B1EAEE412
:103A6A00BFE88AE491E40E944B1E08950E94E91E71
:103A7A000E9494200C94F216AD81BE818F819885A4
:103A8A000895E0E0F0E060E87FEB0E942E1F0895C1
:103A9A00E0E0F0E060E87FE30E942E1F0895EFEF78
:103AAA00FFEF6FE77FE70895ED81FE816F817885EB
:103ABA0008950E94E91E0E9494200C941B17E98124
:103ACA00FA816B817C810895B5DF0E94A51D0E9451
:103ADA0094200C941B17EE81FF81FA93EA930895C0
:103AEA00E987FA876B877C870895AE81BF81119633
:103AFA00AE83BF8311970895AA81BB818C819D8172
:103B0A000895EA83FB836C837D830895EA81FB81B0
:103B1A006C817D81A985BA858B859C850895A98547
:103B2A00BA858B859C850895E991F991309639F08B
:103B3A0080ED97E00197F1F7A8953197C9F70895B5
:103B4A0030976040704009F070580895552342F448
:103B5A00503811F4E0FF04C03196691F791F6BF0E9
:103B6A0050E8572711F45F93CFC05F3F31F0660FDB
:103B7A00000C57956795752F08955F9300200AF0FA
:103B8A00CFC0C8C050E8192E1522880F991F952753
:103B9A00550F879550E8072E0522660F771F752760
:103BAA00550F67950895689401C0E8945F93F2DF12
:103BBA00703818F07F3F08F4A7C056E1571BAAF4E3
:103BCA00519558300EF4593030F0EFEFFFEF6FEFA8
:103BDA007FE777F91AC077275523B9F0EE0FFF1F51
:103BEA00661F771F5A95D1F710C07727583028F0EB
:103BFA00EF2FF62F672F5850F9CF552331F07695CE
:103C0A006795F795E7955A95D1F700200AF489D177
:103C1A005F910895689401C0E894309760407040BD
:103C2A00B1F0002426F0772312F400947AD1172EEB
:103C3A007EE1112032F07A95EE0FFF1F661F111CEC
:103C4A00F9CFEF2FF62F612D5F938ADF5F910895E9
:103C5A004F93AF01FD01DA01AB01BC01CA01402D4E
:103C6A00012C142E4F910895EA0FFB1F681F089527
:103C7A00E095F0956095EF5FFF4F6F4F08955F9362
:103C8A0081DF903871F150E8152604C05F937ADF1E
:103C9A00903839F1703821F1572F591B2BF112F452
:103CAA00D7DFFACF583118F0AA27BB278827583010
:103CBA0028F0AB2FB82F88275850F9CF552329F071
:103CCA008695B795A7955A95D9F7502D512572F033
:103CDA00CBDF38F46795F795E795739513F420C011
:103CEA00B7DF3EDF5F910895D8F7FBCFEA1BFB0BE6
:103CFA00680B51F010F40094BBDF662392F3EE0FC9
:103D0A00FF1F661F7A95CBF7EE27FF2766277727CF
:103D1A005F910895EFEFFFEF6FE77FEF5F910895EF
:103D2A00EFEFFFEF6FE77FE75F9108955F932ADF79
:103D3A00703851F3903841F301240894791F23F421
:103D4A001CF300203AF3ECCF0F921F932F933F936B
:103D5A004F93112722279927689FA0018F9F302D03
:103D6A00410D591F6B9F300D411D591F8E9F27D042
:103D7A00BF9F25D06A9F23D0BE9F1DD0AF9F1BD067
:103D8A00AE9F110D291F391F491F591FE32FF42F09
:103D9A00652F522F4F913F912F911F910F906623BC
:103DAA002AF0550FEE1FFF1F661F02C073954BF2D4
:103DBA00CDDE5F910895100D211D391F02C0200D1F
:103DCA00311D491F591F08955F93DCDE703821F4B5
:103DDA0011200AF49FCFA4CF903809F495CF01247B
:103DEA000894970B1BF4D4F30020F3CF792F1F9379
:103DFA002F933F934F9311241127222733274427C8
:103E0A00552790E2AE17BF078607410730F0AE1B71
:103E1A00BF0B860B410B089401C08894551F221FC3
:103E2A00331F111CAA1FBB1F881F441F9A9551F7E5
:103E3A00F901612D4F913F912F911F91662332F025
:103E4A00550FEE1FFF1F661F7A9543F27FDE5F91C3
:103E5A00089599239AF0772342F0971748F029F4A6
:103E6A00AE17BF07860720F031F09894889408951A
:103E7A009894089408951894889408957723C2F71B
:103E8A00971798F3A9F7EA17FB07680788F399F3D6
:103E9A00ECCF24975F939F81992311F4289634CF0E
:103EAA0012F428963DCF4F9342E48E81BD81AC81B6
:103EBA0088839983AA83BB83FD01BC01AC81BD8140
:103ECA008E819F8181DF88819981AA81BB81DEDE13
:103EDA0061DE7A9545DE88819981AA81BB81AE2708
:103EEA00A87F21F4BF178607970729F04A9519F08A
:103EFA00DF01CB01DDCF4F915F9128960895002411
:103F0A00AF0DB01D0895EA0FFB1F681F791F0895B2
:103F1A00EA1BFB0B680B790B0895F195E195F040CC
:103F2A000895F09560957095E195FF4F6F4F7F4F1B
:103F3A000895FE2FFF0FFF0B6F2F7F2F08956F2F0E
:103F4A00660F660B762F08958B2F880F880B982F94
:103F5A000895AE17BF07E1E008F0EE270895FA9F2B
:103F6A00F02DEB9FF00DEA9FE02DF10D08957A9F59
:103F7A00702D6B9F700DF89F700DE99F700D6A9FF1
:103F8A00602D710DFB9F600D711DE89F600D711D05
:103F9A008827FA9FF02D610D781FEB9FF00D611DA8
:103FAA00781FEA9FE02DF10D681F781F08957DD0D4
:103FBA00D6DF0EF4B2DF089586D0D9DF0EF4B1DF72
:103FCA000895002498E0AA0F001C0E1A10F40E0E91
:103FDA0001C0A1609A95B9F7EA2FA02D089559D08A
:103FEA00F0DF0EF4E19508950024112490E1AA0F60
:103FFA00BB1F001C111C0E1A1F0A18F40E0E1F1EDE
:10400A0001C0A1609A9599F7FD01D00108954DD09C
:10401A00EBDF0EF482DF08953F934F935F93002402
:10402A0011244427552730E2AA0FBB1F881F991F66
:10403A00001C111C441F551F0E1A1F0A460B570B52
:10404A0028F40E0E1F1E461F571F01C0A1603A9585
:10405A0059F7FD01BC01D001CA015F914F913F910F
:10406A00089531D0D9DF0EF45CDF0895E894A7FFF4
:10407A0002C0A1956894E7FDE195A3DFEA2F0EF44B
:10408A00E1950895B1DFFD010895C6DFFD01BC0188
:10409A000895E894E7FF02C0E1956894A7FF04C079
:1040AA00A19500F8039400FA0895E894F7FF02C076
:1040BA0034DF6894B7FF06C0A095B095119600F852
:1040CA00039400FA0895E89477FF02C02ADF6894FF
:1040DA0097FF0BC00024A095B095809590951196F6
:1040EA00801D901D00F8039400FA0895ED91FC914B
:1040FA0011970895ED91FD916D917C911397089513
:10410A00E881F9816A817B810895A881B9818A81D0
:10411A009B810895E883F9836A837B8308957A9360
:10412A006A93FA93EA930895BB27EA0FFB1F02905A
:10413A000A921197E1F70895182E862F612D192EEC
:10414A00972F712D1B2EBF2FF12D1A2EAE2FE12D79
:10415A0008959927EF93FF9361916D930197E1F782
:10416A00FF91EF91089500240E160F060606070622
:10417A000895309760407040089500240A160B068F
:10418A000806090608955A934A933A932A931A936A
:10419A000A9308955D814C813B812A8119810881A6
:1041AA000895AC0FBD1F05900D928A95E1F7089509
:00000001FF
