:060000000C94B4020C9404
:1000060023070C9428070C9400000C94F6120C9409
:1000160000000C9400000C9400000C9400000C945A
:10002600B1090C9400000C9400000C9400000C9490
:1000360089060C9400000C94D1060C9400000C94D4
:1000460000000C9400000C9400000C9400000000CA
:1000560000000000005F00000007000700147F1486
:100066007F14242A7F2A12231308646236495522F4
:10007600500005030000001C2241000041221C0024
:1000860014083E081408083E08080050300000080E
:1000960008080808006060000020100804023E51AD
:1000A60049453E00427F4000426151494621414553
:1000B6004B311814127F1027454545393C4A4949AA
:1000C6003001710905033649494936064949291E51
:1000D600003636000000563600000814224100148F
:1000E600141414140041221408020151090632495D
:1000F60079413E7E1111117E7F494949363E414183
:1001060041227F4141221C7F494949417F09090912
:10011600013E4149497A7F0808087F00417F410036
:100126002040413F017F081422417F404040407FEC
:10013600020C027F7F0408107F3E4141413E7F0949
:100146000909063E4151215E7F091929464649495A
:10015600493101017F01013F4040403F1F204020BF
:100166001F3F4038403F63140814630708700807B0
:100176006151494543007F414100020408102000B7
:1001860041417F000402010204404040404000011A
:1001960002040020545454787F4844443838444478
:1001A6004420384444487F3854545418087E090182
:1001B600020C5252523E7F0804047800447D4000EF
:1001C6002040443D007F1028440000417F40007CD1
:1001D600041804787C0804047838444444387C14B1
:1001E600141408081414187C7C0804040848545491
:1001F6005420043F4440203C4040207C1C204020AA
:100206001C3C4030403C44281028440C5050503C84
:100216004464544C44000836410000007F0000004E
:100226004136080010080810087846414678000054
:10023600E7E7E7E7E700E7E7E7E7E70001000A00A7
:1002460001000A000100010000000000000000009B
:100256000000000000000000000000000000000098
:100266000000000000000000000000000000000088
:100276000000000000000000000000000000000078
:1002860001000000000025640025302E32660020A3
:100296003C414B424F544B49543E00524F424F54FF
:1002A6002057414C4C005748495445204C494E452F
:1002B60000464F4C4F57455200424C41434B204C51
:1002C600494E4500424C5545544F4F544800445200
:1002D6004956450054455354204D4F544F52004DF6
:1002E6006F746F724C004D6F746F725200544553A9
:1002F600542055415254005445535420495200301D
:100306002E00312E00322E00332E00342E00352ED4
:1003160000362E00372E003C53454C46205445539C
:10032600543E002A2A2A2A2A2A2A2A2A2A2A2A003D
:10033600524320534552564F00312E524F424F548E
:100346002057414C4C00322E424C5545544F4F5489
:10035600482000332E5748495445204C494E450005
:10036600342E424C41434B204C494E4500352E54C9
:10037600455354204D4F544F5200362E5445535436
:1003860020495220202000372E54455354205246EF
:1003960020202000382E54455354205541525420D5
:1003A60000392E524320534552564F200031302EED
:1003B600555044415445205242004D41494E20502B
:1003C600524F4752414D0044697374616E63653AFA
:1003D600202566200A0D004F7269656E7461746986
:1003E6006F6E3A202566200A0D004C656674205310
:1003F600706565643A202564200A0D0052696768B5
:10040600742053706565643A202564200A0D002D1A
:100416002D2D2D2D2D2D2D2D2D2D2D2D2D2D2D2D06
:100426002D2D2D2D2D2D2D2D2D200A0D00002D4E7F
:10043600414E000001002D4E414E00494E4600003F
:100446000100020034020500C50336020500CA0396
:100456003C020100DD0442020100080544020100DD
:100466000A05460201000C05480201000E054A0273
:100476000C00600295020B006C02A1020B007702D1
:10048600AC0208008202B7020B008A02BF02080013
:100496009502B7020A009D02CA020600A702D4020C
:1004A6000B00AD02DA020700B802E5020700BF0240
:1004B600EC020A00C602F3020800D002FD020300A5
:1004C600D80205030300DB0208030300DE020B0368
:1004D6000300E1020E030300E40211030300E70236
:1004E60014030300EA0217030300ED021A030C00CB
:1004F600F0021D030D00FC0229030900090336035F
:100506000D0012033F030D001F033F030D002C03D4
:100516004C030D00390359030D00460366030D0015
:10052600530373030D00600380030D006D038D03F9
:100536000D007A039A030C008703A7030D009303AB
:10054600B3030B00A00396020D00AB0329030D00B5
:10055600B803C00306000400860201004E053A04F3
:100566000000F894EE27ECBBF1E0F5BFE5BFF8E13B
:10057600F1BDE1BD8DE0A2E0BB27ED938A95E9F7D9
:1005860080E098E0A0E6ED930197E9F7E6E4F4E071
:1005960085919591009761F0A591B591059015907B
:1005A600BF01F00105900D920197E1F7FB01F0CF35
:1005B600EFE5EDBFE8E0EEBFC0E6D2E00C94D51360
:1005C600E1E5EDB9E0E0EEB988EC90E00197F1F7EE
:1005D600AB98AA9AE0E3EA93E5ECF3E00E94031BEA
:1005E600EAE2EA93EAECF3E00E94031BE1E2EA9313
:1005F600E0E0EA932DD0E2E2EA93E1E0EA9328D044
:10060600E5E2EA93E2E0EA9323D0E1E3EA93E0E26B
:10061600EA931ED0E6E2EA93E7E0EA9319D0E0E235
:10062600EA93EEE0EA9314D00895E881EA930E94F3
:10063600DB140C9467071A93AA98E981EA93F5DF0D
:10064600E0E00E940B1BAA9AE12F18810C946E061B
:100656001A93AA98EA810E940B1BE981EA93E5DFC7
:10066600AA9AE12F1881ADC21A930A93AA98ED812E
:100676000E940B1B00E0EA810E1780F4E02FAB818D
:10068600BC81F0E0EA0FFB1FFF93EF93E0E0EA93F3
:10069600CCDFAF91BF91EC930F5FEDCFAA9AE12F1C
:1006A60019810881269608951A930A93AA98EE81CD
:1006B6000E940B1B00E0EA81FB81A02FB0E0AE1781
:1006C600BF0748F4AC81BD81ED91AC83BD83EA934D
:1006D600ACDF0F5FF0CFAA9AE12F19810881279628
:1006E6000895AB98E0E2EA93E7E0EA93B1DFAB9ACC
:1006F60084E091E00197F1F708951A930A9310E0C8
:10070600E7E0EA9398DF0E2F06FF0BC0AB98E1E611
:10071600EA93EB81FC81FA93EA93E0E2EA93A4DFA1
:1007260011E0E7E2EA930A9393DFAB9AE12F19818E
:10073600088129C21A9310E010E0E9811E1768F4B7
:10074600AA81BB81ED91AA83BB83EA9349D388E54D
:1007560092E00197F1F71F5FF0CF188114C2A881CC
:10076600B9810E94AF231CF4E881F981B4C2E88103
:10077600F9810E947A22AFC20E94101B09F010F480
:100786000C94C7030E94201B0E94271B0E942C1B4F
:1007960009F010F40C94D1030E94311B0CC00E9486
:1007A600101B10F40E94201B0E94271B0E942C1B6A
:1007B60010F40E94311B0E946D23609608950E94DA
:1007C600351BAA81BB810E94AF2314F4AE9A07C0E1
:1007D600AE98EA81FB810E947A22EA83FB83EA8152
:1007E600FB810E943F1BA881B9810E94AF2314F4AC
:1007F600AF9A07C0AF98E881F9810E947A22E88310
:10080600F983E881F981E093FE04F093FF04BBC10C
:10081600AE81BF81E885F985EA1BFB0B0F01AA8132
:10082600BB81E881F981EA1BFB0BD0010E94C4223F
:100836000F01AE81BF81EC81FD81EA1BFB0BD0016C
:100846000E94F422AA81BB81EA0FFB1F2A96089513
:10085600A4970E94BE23ABA9BCA9EFA5F8A9EA1BE1
:10086600FB0B8F01ADA9BEA9EDA5FEA5EA1BFB0BEF
:100876009F01EBA5FCA5309731F441E050E0E0E0A4
:10088600E8A7E9A733C0EA35A0E0FA0739F440E063
:1008960050E0E1E0F0E0E8A7F9A728C0E43BA0E0DB
:1008A600FA0731F44FEF5FEFE0E0E8A7E9A71EC0D3
:1008B600E63AAFEFFA0739F440E050E0EFEFFFEF2A
:1008C600E8A7F9A713C041E050E0EBA5FCA50E94FC
:1008D600441B0E942819DA010E9491220E948B2350
:1008E6000E948321DE0198960E944B1B0E94501B9A
:1008F600ECA3FDA36EA37FA3F9010E94441BF8019C
:100906000E94441B0E94201AE8A3F9A36AA37BA3B2
:10091600FA01A885B985EA0FFB1FEC87FD87E8A5D4
:10092600F9A5AE81BF81EA0FFB1FEA87FB870E940C
:10093600441BE889F9890E94441B0E94201AE88F0B
:10094600F98F6A8F7B8F0E94591BE88DF98D6A8D0E
:100956007B8D0E945E1B0E94631BDF01CB010E9400
:100966006A1BA0F40E94631BABEDBFE089EC90E428
:100976000E943321DE0156960E944B1B0E94711B7A
:1009860009F010F40C94C9040E947C1B0E94631B9E
:100996000E94831B09F010F40C94E3040E94631B6D
:1009A600ABEDBFE089EC90E40E948E230E945E1BB3
:1009B6000E94711B09F010F40C94E3040E947C1B46
:1009C6000E948C1B0E948C1B0E94931BD5DEDE01AD
:1009D60054960E944B1B0E948C1B0E948C1B0E94EB
:1009E600931BDDDEDE0152960E944B1BA88DB98D4E
:1009F6008A8D9B8D0E949A1B0E942C210E94C220E8
:100A0600FA93EA93ACDE0E949F1B0E94831B09F0B7
:100A160010F40C9436050E94A41B0E94B92349F0D9
:100A2600EC89FD890E94591B0E949F1B0E94B923D5
:100A360009F411C00E94A81BAC89BD890E949122AD
:100A46000E948B230E94162228F40E94A41B0E9457
:100A5600162208F008C0AE89BF89EFE0F0E00E94D8
:100A6600F422EE8BFF8BEAA5F0E0E636A0E0FA076B
:100A760071F40E94AD1B3F96E88BF98B0E94AD1B6B
:100A8600AFE0B0E0AE1BBF0BAE87BF8713C0E23648
:100A9600A0E0FA0779F40E947C1B0E94AD1BAFE030
:100AA600B0E0AE1BBF0BA88BB98B0E94AD1B3F9667
:100AB600EE87FF87A889B98950972CF00E94B41B4E
:100AC600E2E5F0E004C00E94B41BE4ECFFEFFA9309
:100AD600EA930E94BD1BE88BF98BA889B9895097C8
:100AE6002CF00E94B41BE2E5F0E004C00E94B41BA7
:100AF600E4ECFFEFFA93EA930E94BD1BEE87FF87B3
:100B0600A889B989EA17FB0731F4EBE0F0E0E88B36
:100B1600F98BEE87FF87E889F989E093D904F0938A
:100B2600DA04EE85FF85E093DB04F093DC040E9493
:100B3600C523EF960895AC9902C0AC9A01C0AC9853
:100B46000895AD9902C0AD9A01C0AD980895E881A7
:100B5600EFB9779BFECFB8C1E981E03011F4C298B6
:100B660001C0C29AC19AC198E881EA93F0DFC19A9E
:100B7600B2C0E0E0EA93EB81E0640E94C71BE98122
:100B8600E068EA93E9DF249608950E94CD1B0530BC
:100B9600E0E01E072CF40E94DA1B0F5F1F4FF7CF11
:100BA6000BC00E94CD1B0530E0E01E072CF40E940E
:100BB600DA1B0F5F1F4FF7CFE1E00E94EB1B198195
:100BC600088123960895A881B981EC91E03031F02F
:100BD600ED91A883B983EA93D8DFF5CF7CC00E9454
:100BE600F01B083FE1E01E0734F4E1E00E94EB1B36
:100BF6000F5F1F4FF6CF0CC00E94F01B083FE1E0CD
:100C06001E0734F4E1E00E94EB1B0F5F1F4FF6CF87
:100C1600E0E0F0E00E94F71B0991199108952597ED
:100C26001A9310E0153030F40E94FF1B0E94021C3C
:100C36001F5FF8CF11E0153038F40E94FF1B0E94A9
:100C4600181CAFDF1F5FF7CF31C0C0988BE18A95C4
:100C5600F1F7C09A0E94261CE0E0EA93E1E20E94C6
:100C6600C71BEFEB0E94C71BE6E00E94C71BE3E130
:100C76000E94C71BE0E20E94C71BECE0EA936CDF10
:100C8600089525971A9310E0153030F40E94FF1B43
:100C96000E94021C1F5FF8CF10E0153038F40E9446
:100CA600FF1B0E94181C71DF1F5FF7CF1881289663
:100CB6000895A981AA2342F4A881B981E0E0F0E071
:100CC6000E942C1CEDE201C0E0E2EA935EDFE881BF
:100CD600F9810E94311C22960895EDB1E065EDB9C7
:100CE600709A0895B2DF7BDFE0E6F2E00E94351CE1
:100CF6000895E881E064E7B98BE18A95F1F7369AC1
:100D0600349BFECF349AE4B1F5B1DEC0AA93EA93E0
:100D1600FA93EFB7EA931A930A931BB10CB1E12F3A
:100D2600EC71D9F4E0913605EF5FE09336050E9449
:100D3600391C0083A0913605A83019F4E0E0E09351
:100D46003605A0913805AF5FA0933805A83029F481
:100D5600E0E0E0933805689420F8099119913AC0CB
:100D66001A93E0913805E030E1F3E0913705EF5F43
:100D7600E09337050E94391C1081A0913705A830F1
:100D860019F4E0E0E0933705F894E0913805E15076
:100D9600E09338057894E12F19910895AA93EA9380
:100DA600FA93EFB7EA93E0914305E03099F0E1500A
:100DB600E0934305E0914205EF5FE09342050E9410
:100DC6003E1CE081ECB9A0914205A83019F4E0E0A0
:100DD600E0934205E991EFBFF991E991A991189540
:100DE600A0914305A830E1F3F894E0914305E03083
:100DF60011F45D9916C0E0914105EF5FE09341055E
:100E06000E943E1CA881A083A0914105A83019F438
:100E1600E0E0E0934105E0914305EF5FE093430591
:100E260002C0E881ECB978944FC0E0E0EBB9E8ED98
:100E3600EAB9E6E0E0BDE0E0E0BDECE0E9B908953E
:100E46000E94431CAAE2B5E004C00E94431CACE227
:100E5600B5E0ED91FD913196FE93EE93E991EFBFEA
:100E6600F991E991B991A9911895EBB7E06CEBBFAF
:100E7600E5E0E5BFE0E0E4BFE0ECEABF08950E94EC
:100E8600351BAE9A0E944A1C1FC00E94351BAE98A5
:100E96000E944A1C19C00E94351BAE9AE0E0F0E0A1
:100EA600FBBDEABDE093FC04E093FD0408950E94B7
:100EB600351BAF9A03C00E94351BAF98E881F0E05E
:100EC600E093FE04F093FF04219608950E94351BDB
:100ED600AF9AE0E0F0E0F9BDE8BDE093FE04E093F0
:100EE600FF0408956C97EC8DFD8D6E8D7F8D0E94AD
:100EF600C220E883F9830E94A81B0E94C220EA83CD
:100F0600FB830E949A1B0E94C220EC83FD830E94F1
:100F16004D1C0E94C220EE83FF83ECA5FDA56EA5A5
:100F26007FA50E94C220E887F9870E94521C0E9472
:100F3600C220EA87FB87ECA9FDA96EA97FA90E94BA
:100F4600C220EC87FD87FE01DE011E968EE00E9420
:100F56009B23FE013E968EE01FB6F89473C1E09780
:100F6600E0916504F0916604A0916104B091620479
:100F7600EA1BFB0B0E949F1BECA7FDA76EA77FA792
:100F8600E0916704F0916804A0916304B091640451
:100F9600EA1BFB0B0E949F1BE8A7F9A76AA77BA782
:100FA6000E94571CACA9BDA98EA99FA90E945C1CD2
:100FB600ECA3FDA36EA37FA30E94621CA8A9B9A9F6
:100FC6008AA99BA90E945C1CE8A3F9A36AA37BA338
:100FD600ECA5FDA56EA57FA50E94671C7F936F9368
:100FE600FF93EF930E944D1C0E946E1CAF91BF9120
:100FF6008F919F910E94751CEC8FFD8F6E8F7F8F56
:101006000E949A1B0E947B1C0E9483217F936F93F0
:10101600FF93EF930E94A81B0E94591B0E948321F5
:10102600AF91BF918F919F910E94751CE88FF98FA8
:101036006A8F7B8F0E949A1B0E94671C7F936F9317
:10104600FF93EF930E94A81B0E946E1CAF91BF9165
:101056008F919F910E94801CE88DF98D6A8D7B8D02
:10106600AC8DBD8D8E8D9F8D0E9483210E94871C25
:101076000E94D1210E948C1C0E94911C0E94951CEA
:101086000E949A1C0E94931B0E94911C0E94201A87
:10109600E887F9876A877B870E949F1C0E94AA1CA3
:1010A6000E94AF1C0E947C230E94021A0E94B41C5C
:1010B600E3ECF5EF68E470E40E94D121E0936D045F
:1010C600F0936E0460936F04709370040E94BD1CCD
:1010D6000E94B3234CF40E94BD1CEBEDFFE069E4D3
:1010E60070E40E94162228F00E94BD1C0E946A1B12
:1010F60028F40E94C21C0E948D2002C00E94C21CBD
:10110600E0936D04F0936E0460936F047093700423
:101116000E947B1CE2E5F8EB6EE570E40E948321F9
:101126000E947B1C0E948321A2E5B8EB8EE590E429
:101136000E9483217F936F93FF93EF930E94591B25
:10114600E3ECF5EF68E370E40E9483210E94591BEB
:101156000E948321A3ECB5EF88E390E40E948321EB
:10116600AF91BF918F919F910E94751CE09371047E
:10117600F093720460937304709374040E94911C3C
:101186000E94951C0E94B41CEBEDFFE069E470E43C
:101196000E94D121A091B104B091B2048091B30410
:1011A6009091B4040E9433210E94CB1C0E94CE1C55
:1011B6000E94D11C7F936F93FF93EF93A0914405F8
:1011C600B091450580914605909147050E94D11C36
:1011D600AF91BF918F919F910E943321E093750447
:1011E600F093760460937704709378040E94501B02
:1011F6000E94A5234CF40E94D81CE0E0F0E064E9CC
:1012060072E40E94162290F0E0917804EE236AF4CC
:101216000E94D81CE0E0F0E060EA72EC0E94162220
:1012260009F010F40C94180901C009C0442455248F
:10123600E6E4F0E03F01E4EBF0E04F0103C0E1E05B
:10124600F0E02F01E8960895E4E0E13069F40E94A9
:10125600E11C0E94071DE093A504F093A604609389
:10126600A7047093A80479C0E23089F40E94E11CB7
:101276000E94301DE093B904F093BA046093BB0456
:101286007093BC040E94411D0E944E1D66C0E3304F
:1012960081F5E0E0E093BD04E093BE04E093BF0473
:1012A600E093C004E093C104E093C204E093C30456
:1012B600E093C404E0E0F0E060E771EC0E945B1D9F
:1012C6000E945B1DE093C904F093CA046093CB04AB
:1012D6007093CC040E94681DE0E0F0E060EA71E4DF
:1012E600E093A504F093A6046093A7047093A80462
:1012F60034C0E43069F40E94E11C0E94071DE093AB
:10130600A504F093A6046093A7047093A80425C0CF
:10131600E53089F40E94E11C0E94301DE093B90477
:10132600F093BA046093BB047093BC040E94411D01
:101336000E944E1D12C0E63081F40E94E11C0E94FC
:10134600681DE0E0F0E060EA71E4E093A504F09344
:10135600A6046093A7047093A80408950E94811DB3
:10136600ACEEB4E00E948F1DAEEEB4E00E948F1D7D
:10137600A0EFB4E00E948F1DA2EFB4E00E948F1D83
:10138600A091EC04B091ED04AB3FE0E0BE0710F491
:101396000C94C40A0E94951DE0E0EA83EB83A091B9
:1013A600FA04B091FB040E949A1DEA1BFB0BE09322
:1013B600F604F093F704A091F804B091F9040E94A2
:1013C6009F1DEA1BFB0BE093F404F093F5040E94C7
:1013D6009F1DE093F804F093F9040E949A1DE09390
:1013E600FA04F093FB04E0E0E093EC04E093ED04F0
:1013F600A091F604B091F704E091FE04F091FF0489
:10140600EA1BFB0BEA83FB83A0910A05B0910B054F
:101416000E94C4220E94A41DEA0FFB1F0E94A91D60
:101426000E94A41DA536E0E0BE0724F0E4E6F0E045
:101436000E94A91D0E94A41DAC39EFEFBE0724F43B
:10144600ECE9FFEF0E94A91DEA81FB81A091080546
:10145600B09109050E94C422EC59FF4F0E94A41DB9
:10146600EA0FFB1FE0930605F0930705A09106051A
:10147600B0910705A030E1E0BE0734F0EFEFF0E0F1
:10148600E0930605F0930705A0910705AA232AF421
:10149600E0E0E0930605E0930705A091F404B0911F
:1014A600F504E091FC04F091FD040E942C1CE881F7
:1014B600F981A0910E05B0910F050E94C4220E94E9
:1014C600AE1DEA0FFB1F0E94B31D0E94AE1DA5367E
:1014D600E0E0BE0724F0E4E6F0E00E94B31D0E94BF
:1014E600AE1DAC39EFEFBE0724F4ECE9FFEF0E9426
:1014F600B31DE881F981A0910C05B0910D050E94FC
:10150600C422EC59FF4F0E94AE1DEA0FFB1FE09369
:101516000405F0930505A0910405B0910505A030DA
:10152600E1E0BE0734F0EFEFF0E0E0930405F0935E
:101536000505A0910505AA232AF4E0E0E093040539
:10154600E0930505E091FE04F091FF04309729F041
:10155600E0910605F091070502C0E0E0F0E0F9BD74
:10156600E8BDE091FC04F091FD04309729F0E0918C
:101576000405F091050502C0E0E0F0E0FBBDEABD20
:101586002496A091EE04B091EF041B9720F0A09151
:101596001C05A13009F025C022970E94B81D0E94A3
:1015A600BC1DA0911A05B0911B050E942C1CE09150
:1015B6001805F0911905A881B981EA17FB0758F4B7
:1015C6006ADC84DCE0E0E0931C050E94BC1DE0932D
:1015D6001A05F0931B05E0E0E093EE04E093EF04B8
:1015E6002296A091F004B091F1041B9720F0A091EF
:1015F6002105A13009F025C022970E94B81DA091AF
:101606001F05B09120050E949F1D0E942C1CE09191
:101616001D05F0911E05A881B981EA17FB0758F44C
:101626003ADC54DCE0E0E09321050E949F1DE09344
:101636001F05F0932005E0E0E093F004E093F10449
:101646002296A091F204B091F304129728F0E0E0FC
:10165600E093F204E093F3040E94C71D18950E94DC
:10166600C02310E020E030E0989B44C00E94D313D2
:10167600E4E0F0E0EC15FD05E1F5E5E0F0E00E94C0
:10168600D51DE0916B04F0916C040E94DD1DE4E031
:10169600F0E00E94D51DE0916904F0916A040E9471
:1016A600DD1D0E94E11D0E94E61D0E94571C0E943E
:1016B600DD1D0E94EC1D0E94E61D0E94621C0E9418
:1016C600DD1D0E94F11D0E94F11D53DAE0916504B3
:1016D600F09166040E94DD1D0E94F61D0E94F11D18
:1016E60048DAE0916704F09168040E94DD1D0E94CB
:1016F600FB1DBACFE22FE5C41A930A930E94011E7E
:101706000E94071EECE6F2E00E94351CAC9AAD9AE8
:10171600989B60C0E4E0EA93ECDAE093DE04F09391
:10172600DF04E5E0EA93E5DAE093E004F093E10410
:101736000E940D1EE091DE04F091DF040E94311C30
:101746000E94F11D0E94101EE091E004F091E10458
:101756000E94311CA091DE04B091DF04AB3FE0E0B3
:10176600BE0730F0E6E1EA9390DBEAE00E94161E3F
:10177600A091E004B091E104AB3FE0E0BE0730F099
:10178600EAE0EA9382DBE6E10E94161EA091DE04FF
:10179600B091DF04ECE2F1E00E9496220E2EA091B9
:1017A600E004B091E104ECE2F1E00E949622E0212F
:1017B60031F0E6E1EA9363DBE6E1EA9378DB0F5F7B
:1017C6001F4F0333E0E01E0720F000E010E00E9408
:1017D6001F1E9ECF0991199108950E94C02300E013
:1017E60010E020E030E000E010E00530E0E01E0709
:1017F6005CF40E94231EAE0FBF1FE0E0F0E0ED9305
:10180600FC930F5F1F4FF1CF20E030E02233E0E082
:101816003E0714F00C94510CE0E0EA936ADAA091CA
:10182600E204B091E304EA0FFB1FE093E204F093B5
:10183600E304E1E0EA935DDAA091E404B091E50403
:10184600EA0FFB1FE093E404F093E504E2E0EA9379
:1018560050DA0E94291EEA0FFB1FE093E604F0937C
:10186600E704E3E0EA9345DAA091E804B091E904DD
:10187600EA0FFB1FE093E804F093E904E7E0EA933C
:1018860038DAA091EA04B091EB04EA0FFB1FE0936B
:10189600EA04F093EB042F5F3F4FB8CF00E010E06F
:1018A6000530E0E01E07ACF40E94231EEA0FFB1F82
:1018B600BF010E94231E0E942E1E7996DF01E2E3DD
:1018C600F0E00E94E122DB01ED93FC930F5F1F4FD6
:1018D600E7CFF7C326970E94B81DE0E0EA83EB83C3
:1018E600EC83ED830E94BE2310E020E030E00E94EE
:1018F600011E0E94F11D0E94BC05E7E7F2E00E946E
:10190600351C0E94F11D0E94071EE2E8F2E00E94CB
:10191600351CAC9AAD9A0E94331E153068F40E94AD
:101926003C1E0E942E1E4E175F0720F40E943C1E8E
:101936000E94431E1F5FF1CF202F3327989BBFC005
:101946000E94331E153068F40E943C1E0E942E1E13
:101956004E175F0720F40E943C1E0E94431E1F5F25
:10196600F1CF0E94491EE21BF30BDF0132972CF4E4
:10197600FD01EF3FAFEFFA070CF434C00E94491E99
:10198600309749F40E944C1E0E94501EE1E0F0E0A0
:10199600EE83FF8325C0E130A0E0FA0729F40E9418
:1019A6004C1E0E94541E1CC0E230A0E0FA0729F427
:1019B6000E94581E0E94541E13C0E330A0E0FA078E
:1019C60029F40E94581E0E945C1E0AC0E430A0E062
:1019D600FA0731F40E94601EE1E0F0E0E887F9873B
:1019E600202F3327A885B985119719F40E94651E03
:1019F60009F41FC00E94601E0E94331E153068F451
:101A06000E943C1E0E942E1E4E175F0720F40E9465
:101A16003C1E0E94431E1F5FF1CF202F33270E94DA
:101A2600291EA53FE1E0BE0718F0E0E0E887E98758
:101A3600D9CFAE81BF81119719F40E94651E09F4B2
:101A460021C00E944C1E0E94501E0E94331E15305B
:101A560068F40E943C1E0E942E1E4E175F0720F45B
:101A66000E943C1E0E94431E1F5FF1CF202F33278A
:101A76000E94291EA53FE1E0BE0718F0E0E0EE83D4
:101A8600EF83D7CF0E94E11D0E94071E0E94491EC8
:101A96000E94DD1D0E946A1E5A934A930E945C06AC
:101AA600EA85FB853196EA87FB87AA85BB855F9722
:101AB60028F0E0E0EA87EB870E941F1E3FCF0E94D6
:101AC600C5232C960895E79787E3A0E0B0E0EEE4FF
:101AD600F2E00E94CC230E94BE2300E010E020E04A
:101AE60030E040E050E00E94011E0E94F11D0E947D
:101AF600BC05EAE8F2E00E94351C0E94F11D0E9436
:101B0600071EE5E9F2E00E94351CAC9AAD9A0E94E8
:101B16006F1E0530E0E01E078CF40E94231E0E9413
:101B26002E1E0E947C1E38F40E94231E0E942E1E2A
:101B3600EBA3FCA3A8010F5F1F4FEBCF4E835F8380
:101B4600E0E0F4E0EBA3FCA3EE8FEF8F989B40C0A0
:101B560044DE01E010E00530E0E01E078CF40E9450
:101B6600231E0E942E1E0E947C1E38F40E94231EF5
:101B76000E942E1EEBA3FCA3A8010F5F1F4FEBCF05
:101B86000E94E11D0E94071EEBA1FCA10E94DD1D23
:101B960001E010E00530E0E01E079CF40E94231EE1
:101BA6000E942E1EAE8DBF8DAE17BF0738F40E9461
:101BB600231E0E942E1EEE8FFF8F0AA30F5F1F4F5C
:101BC600E9CF0E946A1EEE8DFF8D0E94DD1DBECFFD
:101BD600E0E0EDA7EEA7EFA7E8ABFFDD00E010E041
:101BE6000530E0E01E0714F00C94400E0E94231E00
:101BF6000E942E1E66277727E9ABFAAB6BAB7CAB50
:101C0600A9A9BAA98BA99CA9A831E1E0BE07E0E081
:101C16008E07E0E09E0744F4E1E0F0E060E070E06B
:101C2600EDA7FEA76FA778ABF801A8EEB3E00E9478
:101C3600C422DF01E9A9FAA96BA97CA90E94912215
:101C46000E94C922A9A5BAA58BA59CA50E947022AF
:101C5600E9A7FAA76BA77CA7E9A9FAA96BA97CA9AA
:101C6600ADA1BEA18FA198A50E947022EDA3FEA3EF
:101C76006FA378A70F5F1F4FB3CFADA5BEA58FA5E6
:101C860098A90E94811E01F5EDA1FEA16FA178A57C
:101C9600A9A5BAA58BA59CA50E941E236627772712
:101CA6000E948C22EDABFEAB6FAB78AFE0E0EDA708
:101CB600EEA7EFA7E8ABE9A7EAA7EBA7ECA7EDA38A
:101CC600EEA3EFA3E8A719C0A9ADBAAD8BAD9CAD45
:101CD600A039E7E0BE07E0E08E07E0E09E072CF0C3
:101CE600E0EDF7E060E070E004C0E8E0F7E060E017
:101CF60070E0EDABFEAB6FAB78AFADA9BEA98FA917
:101D060098ADEFE8F7E060E070E00E9475220E946F
:101D1600F9200E949A1C0E94891EE0E0F0E068EC1F
:101D260072E40E94162209F010F40C949C0E0E9494
:101D36009A1C0E94891EE0E0F0E068EC72EC0E94BA
:101D4600162210F40E949A1C0E94891EE0E0F0E020
:101D56006CE072E40E948E1E0E948C1C0E94971EEC
:101D6600E0E0F0E060EC70E40E94162209F010F466
:101D76000C94BF0E0E948C1C0E94971EE0E0F0E0BF
:101D860060EC70EC0E94162210F40E948C1C0E94DB
:101D9600891EE0E0F0E060EE70E40E948E1E7F9304
:101DA6006F93FF93EF930E949F1CDF01CB01E0E04E
:101DB600F0E060EF71E40E94D121AF91BF918F9165
:101DC6009F910E94801C0E949C1E0E94162209F070
:101DD60010F40C94F40EE0E0F0E060E171E40E948F
:101DE600A21E0E94871CE0E0F0E060E271EC0E9417
:101DF600162230F4E0E0F0E060E171EC0E94A21EF1
:101E0600EC89FD896E897F89A0E0B0E080E291E4EB
:101E16000E9433210E94C020EA9331D80E949C1E62
:101E26000E942C210E94C020EA9341D8EDA9FEA968
:101E36006FA978ADE9AFFAAF6BAF7CAF0E94AC1E6D
:101E4600E887F9876A877B87C8CE989BE5C00E949A
:101E56006F1E0530E0E01E078CF40E94231E0E94D0
:101E66002E1E0E947C1E38F40E94231E0E942E1EE7
:101E7600EBA3FCA3A8010F5F1F4FEBCF0E94EC1D45
:101E86000E94071EEE81FF810E94DD1D0E94E11D5A
:101E96000E94071E5A934A930E945C060E946A1E7D
:101EA600EBA1FCA10E94DD1DAE81BF81FA01EA1BF8
:101EB600FB0BDF0132972CF4FD01EF3FAFEFFA0782
:101EC6000CF43CC0FA01309749F40E944C1E0E9463
:101ED600541EE1E0F0E0E88FF98F2EC0E130A0E07B
:101EE600FA0749F4E2E0EA930E944207E8E0EA933F
:101EF6000E945A0721C0E230A0E0FA0749F4EAE05E
:101F0600EA930E944207EAE0EA930E945A0714C045
:101F1600E330A0E0FA0721F4E8E00E94B11E0CC00D
:101F2600E430A0E0FA0741F40E94581E0E945C1EAD
:101F3600E1E0F0E0EA8FFB8F4E835F83AA8DBB8DD5
:101F4600119719F40E94651E09F426C0E4E10E9467
:101F5600B11E0E946F1E0530E0E01E078CF40E9441
:101F6600231E0E942E1E0E947C1E38F40E94231EF1
:101F76000E942E1EEBA3FCA3A8010F5F1F4FEBCF01
:101F86004E835F830E94291EA633E1E0BE0718F444
:101F9600E0E0EA8FEB8FD2CFA88DB98D119719F4B7
:101FA6000E94651E09F429C0E2E0EA930E944207F6
:101FB6000E94501E0E946F1E0530E0E01E078CF442
:101FC6000E94231E0E942E1E0E947C1E38F40E9430
:101FD600231E0E942E1EEBA3FCA3A8010F5F1F4F1A
:101FE600EBCF4E835F830E94291EA633E1E0BE0736
:101FF60018F4E0E0E88FE98FCFCFEC8DFD8D3196B8
:10200600EC8FFD8FAC8DBD8D5F9728F0E0E0EC8FF7
:10201600ED8F0E941F1E19CF0E94C523ED960895CD
:102026000E94C0230E94B81E0E94071EEDE9F2E03E
:102036000E94351C0E94F11DE9E1F0E00E94BB1EE2
:10204600E7EAF2E00E94351CAC9AAD9A989B39C03B
:102056000E94BF1EE0913805E03091F10E94EC1D10
:102066000E94101E0E94B3061E2F1A930E94C805D6
:10207600133519F4E0E00E94CF1E163419F4E4E695
:102086000E94D61E123441F4E4E6EA930E94480701
:10209600E4E6EA930E945E07123519F4E4E60E942C
:1020A600CF1E1C3419F4E0E00E94D61E2F5F3F4F6E
:1020B600293EE3E03E0720F020E030E00E941F1EAC
:1020C600C5CF0E94C723249608950E94B81E0E9479
:1020D600071EEDEAF2E00E94351C0E94501EE4E164
:1020E600EA930E944207989B25C00E94DD1EE8EBFA
:1020F600F2E00E94351C0E94EC1DEDE2F0E00E9429
:10210600BB1E0E949F1D0E94311CE3E0F0E00E946E
:10211600F71BEFEBF2E00E94351C0E94E11DEDE299
:10212600F0E00E94BB1E0E949A1D0E94311C0E9474
:10213600E01ED9CF0E9469070E944E070895E091DC
:102146003805E03069F00E94B81E0E94071EE6ECD2
:10215600F2E00E94351C0E94B306EA930E94F30641
:10216600089508956097E0E0EABBEBBB0E94FF0587
:102176000E94F61D0E94071EE0EDF2E00E94351C4B
:10218600989B91C0E0E0EA930E947C06E883F9837D
:10219600E1E0EA930E947C06EA83FB83E2E0EA93AD
:1021A6000E947C06EC83FD83E3E0EA930E947C06B2
:1021B600EE83FF83E4E0EA930E947C06E887F987D2
:1021C600E5E0EA930E947C06EA87FB87E6E0EA936D
:1021D6000E947C06EC87FD87E7E0EA930E947C0676
:1021E600EE87FF870E940D1EE8EDF2E00E94351C87
:1021F600E881F9810E94E61E0E94F11D0E94EA1EF6
:10220600EBEDF2E00E94351CEA81FB810E94E61E9E
:102216000E94DD1EEEEDF2E00E94351CEC81FD8190
:102226000E94E61E0E94EC1D0E94EA1EE1EEF2E00C
:102236000E94351CEE81FF810E94E61EE3E0F0E07D
:102246000E94F71BE4EEF2E00E94351CE885F98552
:102256000E94E61E0E94E11D0E94EA1EE7EEF2E0E1
:102266000E94351CEA85FB850E94E61EE4E0F0E04C
:102276000E94F71BEAEEF2E00E94351CEC85FD8514
:102286000E94E61EE4E0F0E0FA93EA930E94EA1E5A
:10229600EDEEF2E00E94351CEE85FF850E94E61EFB
:1022A6000E94261C6DCF0C94DD150E94B81EE5E039
:1022B600F0E00E94BB1EE0EFF2E00E94351C0E9497
:1022C6000D1EECEFF2E00E94351C08951A93EFEF15
:1022D600EABB0E94ED1E39F4AD9AAC9ADC9A0E94D4
:1022E600E01EAC985DC0E230A0E0FA0741F4AD9A7A
:1022F600AC9ADE9A0E94E01EAC98DE9852C0E3309B
:10230600A0E0FA0741F4AD9AAC9ADF9A0E94E01E6B
:10231600AC98DF9846C0E430A0E0FA0741F4AD9AE5
:10232600AC9ADD9A0E94E01EAC98DD983AC0E53082
:10233600A0E0FA0731F4AC9AAD9ADC9A0E94E01E4E
:102346002EC0E630A0E0FA0741F4AC9AAD9ADE9AC8
:102356000E94E01EAD98DE9824C0E730A0E0FA07A0
:1023660041F4AC9AAD9ADF9A0E94E01EAD98DF98D0
:1023760018C0E830A0E0FA0741F4AC9AAD9ADD9AAD
:102386000E94E01EAD98DD980CC0E930A0E0FA0787
:1023960061F4AC9AAD9ADC9A0E94E01EAC98AD98B6
:1023A600DC98EEE1F0E00E94F41E199108950E9477
:1023B600FF050E94F61D0E94071EE9E0F3E00E9459
:1023C600351CE5E60E94F81EE7E6E5BDE0E0E4BD63
:1023D600E3BD989B13C0AC9AAD9AE2E0ECBFE3BDB7
:1023E600E0EDF7E00E94F41EAC98AD98EAE0ECBF91
:1023F600E3BDE0EDF7E00E94F41EEBCFE0E00E94C3
:10240600F81EE0E0E5BDE4BDE3BD08950E94FE1EB2
:10241600E2E1F3E00E94351C0E94FB1DA091D50469
:10242600B091D604119711F00C94C3124FDF98990E
:102436006AC0E091DD04EF5FE093DD04A091DD0466
:10244600AC3018F0E1E0E093DD040E94ED1E29F4C3
:102456000E94FE1EEFE1F3E050C0E230A0E0FA0772
:1024660029F40E94FE1EECE2F3E047C0E330A0E050
:10247600FA0729F40E94FE1EE9E3F3E03EC0E430C9
:10248600A0E0FA0729F40E94FE1EE6E4F3E035C058
:10249600E530A0E0FA0729F40E94FE1EE3E5F3E02A
:1024A6002CC0E630A0E0FA0729F40E94FE1EE0E602
:1024B600F3E023C0E730A0E0FA0729F40E94FE1EED
:1024C600EDE6F3E01AC0E830A0E0FA0729F40E942E
:1024D600FE1EEAE7F3E011C0E930A0E0FA0729F4AE
:1024E6000E94FE1EE7E8F3E008C0EA30A0E0FA0723
:1024F60051F40E94FE1EE3E9F3E0FA93EA930E9488
:10250600E6050E94FB1D99993AC00E94ED1E11F442
:10251600F3D835C0E230A0E0FA0711F481DD2FC010
:10252600E330A0E0FA0711F4D5D929C0E430A0E0E1
:10253600FA0711F4C8DA23C0E530A0E0FA0711F46F
:10254600C4DD1DC0E630A0E0FA0711F40BDE17C0AB
:10255600E730A0E0FA0711F404DE11C0E830A0E08D
:10256600FA0711F4ECDD0BC0E930A0E0FA0711F42C
:102576001EDF05C0EA30A0E0FA0709F470D84ECF96
:102586000895E091B504F091B6046091B704709196
:10259600B804AAE4B5E00E944B1BACE4B5E0E091B8
:1025A600B904F091BA046091BB047091BC040E9416
:1025B6004B1B08952497FE013496DE0184E00E94A9
:1025C6009B23FE0184E01FB6F89428960895E0E068
:1025D600E2BDEFE0E5BDE2E1E4BDEEEFE3BDE9B764
:1025E600E068E9BF08950E94811D1A9310E00E94D9
:1025F600A405A0914805AF5FA0934805A150A2305D
:1026060008F4CAC0E0E0E0934805E9E7F4E0FA938D
:10261600EA930E948003E13011F00C94CF132E97B9
:1026260010E01C3160F4A12FB0E0A151BC4F0E9414
:10263600FF1BE758FB4FE081EC931F5FF2CF0E9430
:10264600011F0E947C230E940A1F0E947C230E9475
:1026560071180E94C0206F010E940F1FEFEEF3E079
:10266600ACE10E9481230E947507DE010E949B2334
:102676001FBEF601E130A0E0FA0721F4FE01ABE04F
:10268600B4E027C0E230A0E0FA0721F4FE01A9E198
:10269600B4E01FC0E330A0E0FA0721F4FE01A7E290
:1026A600B4E017C0E430A0E0FA0721F4FE01A5E388
:1026B600B4E00FC0E530A0E0FA0721F4FE01A3E480
:1026C600B4E007C0E630A0E0FA0731F4FE01A1E568
:1026D600B4E08EE00E949B23E4E0F0E0EC15FD05FB
:1026E60011F00C94CE13AC9B02C0AC9801C0AC9A0E
:1026F6000E940F1FE1E0E0934905FE01AFE5B4E05B
:102706008EE00E949B23A0916104B0916204E09147
:102716004A05F0914B05AE1BBF0BA436E0E0BE07A1
:1027260074F4A0916304B0916404E0914C05F091B7
:102736004D05AE1BBF0BA436E0E0BE0704F128979B
:102746000E94571CE883F9830E94621CEA83FB837C
:10275600FE01A4E00E9481232DDFDE0114960E9473
:102766009B231FBEEC81FD81E0936104F09362041C
:10277600EE81FF81E0936304F093640428960E943F
:10278600571CE0934A05F0934B050E94621CE093A8
:102796004C05F0934D052E9619910E94C71D18956C
:1027A600E0E00895AE97E4E0F0E0E8A3F9A3E6EDF3
:1027B600FFEFEAA3FBA3E0E3F0E0ECA3FDA3EDED5E
:1027C600FFEFEEA3FFA3EEECFFEFE8A7F9A7E0E02B
:1027D600EAA7EBA7ECA7EDA7EFEFEABBEFEBE7BBAA
:1027E600ECEFE4BBE2EFE1BBE0E4E7B9E3E8E6B92E
:1027F600E1EAEFBDE2E0EEBDE0E0EDBDECBDE7BD38
:10280600E6BDEBBDEABDE9BDE8BDE4E0E9BF00E039
:10281600013020F40E94BF1E0F5FFACF0E9470069F
:102826000E9475060E94E3020E9474030E94380704
:102836000E941807CCDEA5DE78940E94F61D0E9441
:10284600071EE0EAF3E00E94351C0E940D1EEBEA2B
:10285600F3E00E94351C98991DC0A7EDB4E00E94D4
:102866008F1DA091D704B091D8041B9770F0989B48
:10287600FECFE0E0E093D704E093D804E1E0F0E097
:10288600E093D504F093D604C1DDE4E6F0E00E94BF
:10289600F41EE1CF0E94DD1EE8EBF3E00E94351C3A
:1028A6000E9427090E94191F0E94191F0E94B20741
:1028B60021970E94201FEDECF3E0FA93EA93E09152
:1028C6007104F091720460917304709174040E9413
:1028D600251F0E942D1FEDEDF3E0FA93EA930E9467
:1028E600501B0E94251F0E942D1FE0EFF3E0FA9374
:1028F600EA93E091D904F091DA040E948C220E94B6
:10290600251F0E942D1FE2E0F4E00E94321F0E9464
:102916008C220E94251F0E942D1FE5E1F4E0FA9308
:10292600EA9380E00E94F2172496E8830E94201F13
:10293600EA81EA930E949D032196EFE5F4E0AEE07A
:102946000E9481230E94F61D0E94F61D0E94F61D1C
:10295600E6E6EA930E942B04E091D904F091DA04AA
:102966000E94321FFA93EA930E94E2039BCFFFCFA5
:10297600E991F991A991B991CD0105900D920020A7
:10298600E1F7FC010895A991B991EE27FF276D9112
:10299600662311F03196FBCF0895AA27BB27E9914C
:1029A600F9910590002011F01196FBCFFD010895D5
:1029B600E881EFB9779BFECFEFB1219608951A9380
:1029C6000A93AA81BB8112960E946323309729F14C
:1029D600AA81BB8114960E9463238F01309761F010
:1029E6000230E0E01E07C0F0F80131978F01AA819E
:1029F600BB811496ED93FC93AA81BB8112960E942B
:102A06008F1D3197AC81A083AA81BB810E9463236D
:102A1600FF2312F00E948F1D06C0AA81BB81EFEF33
:102A2600FFEFED93FC9319810881259608950E9486
:102A3600951DE0E8EA83EFE3EB830E94C023EE8571
:102A4600FF85EF3FAFEFFA0749F4E885F985FA937A
:102A5600EA93E4E3F4E00E94391FAAC0EF3FAFE730
:102A6600FA0749F4E885F985FA93EA93E5E3F4E091
:102A76000E94391F9DC0AB85A73010F0E6E0EB87BA
:102A86001B85E12F1150E03019F00E943D1FF9CF50
:102A96000E94AC1E0E94AB2321F430E00E943D1F31
:102AA60028C03B850E94421F09F010F40C9464155F
:102AB6000E943D1F0E94421F18F00E94471FFACF36
:102AC6000DC00E94421F40F40E94891E0E94511FA1
:102AD6000E949A1C3150F5CF0E943D1F0E94AC1EE9
:102AE6000E94551F0E949A1C0E94421F10F00E94CD
:102AF600471F10E0EB85E11778F10E94BD1C0E948C
:102B06005C1F0E94551F0E94631F0E94AA1C0E9400
:102B1600271B0E94891E0E94D1210E94C0200E2FD1
:102B26000E94671FE02FE05DEC93E02FFF276627EA
:102B360077270E94F9200E946E1F0E94891E0E941C
:102B4600721F0E949A1CE12F1F5FE03099F60E94C7
:102B5600671FEEE2EC93CECF0E94771F3197AA85CE
:102B6600A08330302CF43195A885B985EDE203C0F9
:102B7600A885B985EBE2EC930E94771F0E94771F28
:102B86003197BF01A32FEAE00E94DC22E05DDB0162
:102B9600EC930E94771F3197BF01A32FEAE00E94B2
:102BA6002323E05DDB01EC93A885B985E0E0EC9397
:102BB6000E94C72360960895EF9761970E94BE23EF
:102BC60010E0FE01E85AFF4F0190F081E02DE88702
:102BD600F987FE01EA5AFF4F0190F081E02DEE835E
:102BE600FF83AE81BF81E0E0F0E0ED93FC93DE0170
:102BF600A45ABF4F0E948F1D3197E4912E2FE030CB
:102C060011F40C94E917E12FE03039F4253211F470
:102C160011E002C00E947D1FD8C1E130C1F4253207
:102C260019F40E947D1FD0C112E0E0E0ED8B00E0B8
:102C36002D3211F401E0C9C12B3219F4EBE2ED8B10
:102C4600C4C1203219F4E0E2ED8BBFC102C0E2300C
:102C560039F450E013E0203311F40068B6C102C025
:102C6600E33091F4203310F02A3308F007C0AAE0CD
:102C76005A9F502DE22FE0535E0FA7C140E02E323F
:102C860011F414E0A2C10FC0E43099F4203310F01F
:102C96002A3308F008C00062AAE04A9F402DE22FBE
:102CA600E0534E0F92C12C3619F4026015E08DC127
:102CB60004C0E53011F00C94E817E22FE33659F41E
:102CC6000E94861F0E948D1F0E94861FA481AA93C0
:102CD6000E94941F79C1E53411F0E53609F404C069
:102CE600E63611F00C94C116FE017696EE87FF8744
:102CF6000E949C1F0E9467230E94A31F0E94A81F78
:102D0600AD85AA2322F0AD89AB3249F017C00E94E7
:102D1600AA1F0E948D200E94A31FEDE2ED8B07FFE4
:102D260005C0ED89EA930E94941F08C0EE85FF85D1
:102D36003196EE87FF873197AD89A08305FF46E080
:102D4600263661F40E94AA1F0E947C234A93EB89CF
:102D5600FC89FA93EA930E946B1A0BC00E94AA1F81
:102D66000E947C234A932A93EC89FD89FA93EA937D
:102D76005EDEFE0176960E94AF1F1EC0E33739F471
:102D86000E94A81F0E94B71F0E94AF1F0EC0E03707
:102D9600C1F40E94A81F0E94B71FEE87FF87FA930F
:102DA600EA930E94D0141E2F08600F77403011F06E
:102DB600411708F001C0142F40E0E0E0EC8B30E052
:102DC6006EC0E43611F0E93611F4046002C0E5374E
:102DD600A1F4EAE0EC8B01FF08C0E0E0FAEC6AE956
:102DE6007BE30E948C1C1AE023C0E0E1F7E260E07E
:102DF60070E00E948C1C15E01BC0E83511F40860D9
:102E060004C0E83711F00C94E717E0E1EC8B01FF02
:102E160008C0E0E0F0E060E070E10E948C1C18E081
:102E260007C0E0E0F0E160E070E00E948C1C14E076
:102E3600403011F00F7701C041E001FF08C00E9449
:102E4600A81F0E949C1F14960E9467230FC002FFB2
:102E560007C00E94A81F0E94B71F0E948C2206C0AE
:102E66000E94A81F0E94B71F66277727EA87FB875D
:102E76006C877D8702FF12C0AD85AA2342F40E94AB
:102E8600AA1F0E947E220E94A31FEDE2ED8BED8910
:102E9600E03019F01F5F4F5F01C00B7F342F00FD3C
:102EA60014C0151710F4351708F00FC007FF08C037
:102EB60002FF04C00B7F2D89115001C020E301C021
:102EC60020E20E947D1F5150ECCF141790F4006150
:102ED60002FF06C00E94BC1F09F05150115041501C
:102EE600E0E3EA930E94941F503009F0515041509C
:102EF600ECCF312FEC89E030B9F43030A1F003FF8C
:102F060006C0EE85FF852591EE87FF8705C0AE8555
:102F1600BF852D91AE87BF870E947D1F503009F077
:102F260051503150EACF46C00E94D01F0E94F9226C
:102F36002E2F2A3030F003FF02C0295C01C0295A27
:102F460001C0205D04FD1AC0213328F40E94971E9B
:102F56000E94811E09F40BC0431740F4531710F06A
:102F660000FF01C010C020E207FF08C020E3006197
:102F760002FF04C00E94BC1F09F051500E947D1F31
:102F8600503009F0515031500E94D01F0E94322318
:102F96000E94A31FEC890E94971EFF2766277727AA
:102FA6000E94F9220E948C1C0E94AF1C0E94AB2337
:102FB60009F0BACF00FF08C0503031F05150E0E2BE
:102FC600EA930E94941FF8CF10E011CEAE81BF8124
:102FD6000E9463230E94C523EF966F960895FF9281
:102FE600F82E26970E94C0230E94D61F309719F408
:102FF600EFEFFFEF25C0DE0116960E946C228D01D1
:103006000E94D61FEE83FF83E0E0E887E987DE01B2
:103016001A960E946C220E946323FA93EA931A93EB
:103026000A93E2EEF4E1FA93EA93FE013A96FA93F2
:10303600EA93C2DD9F01AE81BF81E0E0EC93F90126
:103046000E94C7232A96FF9008957B816A81F981A1
:10305600E88177FB770F67FD7160972F9E5781F0A8
:1030660078F0983190F4AA27BB278827089487958B
:10307600B795A7959A95D1F7EA23FB23682305C050
:10308600E8947727EE27FF2766276F77769508F46B
:10309600606877F9A991B99189919991EA17FB0727
:1030A6006807790797FB08950E94DD1F0E94E01FBD
:1030B60019F40E94DD1FBFC1E6F70E94E51FB9C1E2
:1030C6000E94DD1F0E94E01F19F40E94DD1FB3C19C
:1030D600E6F30E94E51F0E943321ADC124970E94AA
:1030E600271B0E94AB2329F4E0E0F0E060E070E0EB
:1030F600EDC10E94EB1F0E94DD1F0E94AB2329F445
:10310600E0E0F0E060E070E0E1C10E94CE1C0E94C9
:10311600B3232CF40E94DD1F0E94631F03C00E948C
:10312600F31FCEDF0E9477230E94DD1F0E946E1FD1
:10313600A885B9858A859B850E94721FC7C10E9492
:10314600F71FE3E8F9EF62E27EE30E9483210E9423
:10315600FF1F0E9404200E94631F0E9409200E94F4
:10316600721F0E94FF1F0E940E200E94162209F065
:1031760010F40C94C9180E940420A0E0B0E080E08E
:103186009FE30E942C210E94FF1F11E00E9409204C
:10319600E0E0F0E060E87EE30E94162209F010F419
:1031A6000C94DB180E940E200E942C210E94FF1F07
:1031B600103011F00E9414200E941820E983FA832F
:1031C6006B837C830E941D20A1EBB4EC86E292E423
:1031D6000E948321DF01CB01EDE1F5EE6DE272E4A1
:1031E6000E94721F0E942220ACE4B3E584E091E4C1
:1031F6000E9433210E9409200E9483217F936F93AE
:10320600FF93EF930E941D20A1E1BDEE8EED9FE39B
:103216000E9433210E942220AEE5BBE788EA9FE3A5
:103226000E943321AF91BF918F919F910E94D1212E
:10323600E3C00E94CE1CEBEDFFE069EC7FE30E9449
:103246002C210E947C237BDFF6C024970E94271B3B
:103256000E947C23EEDF0E94CB1C0E94AB2369F404
:103266000E94BD1C0E94B3231CF40E94292036C074
:10327600EFEFFFEF6FE77FEF31C00E94271B0E9441
:103286007C235DDFDF01CB010E94DD1F25C0249773
:103296000E94271B0E946E1F0E94CB1C0E94DD1FEE
:1032A600A5E6B0ED8BEC90E40E942E200E946E1FE6
:1032B6007F936F93FF93EF930E94DD1FA0E0BDE61F
:1032C60089E291E40E9433210E94CE1C0E942E20A6
:1032D600AF91BF918F919F910E94D1212896089519
:1032E6000E94CE1CEDECF3E164ED7EE30E94162213
:1032F60020F40E94F31FCBDF9EC00E94CE1CEAE79B
:10330600F2E86AE170E40E94162209F010F40C94C7
:1033160091190E94E51F0E94372085C00E94E51F73
:103326000E942C217F936F93FF93EF930E94E51FDA
:103336000E943321AF91BF918F919F910E943720B8
:10334600ABEDBFE089E49FE30E94332174C00E9485
:10335600F71F0E943D2048F00E9409200E94442049
:1033660019F010F00C94B81903C00E94292044C02B
:10337600A885AA231AF40E94142011E00E9418209E
:10338600A0E0B0E080E89FE30E94721F0E947C23C9
:103396000E943622E983FA836B837C830E9409208C
:1033A600E3EFF4E065E37FE30E94162209F010F4F0
:1033B6000C94EC190E940420A981BA818B819C810E
:1033C6000E944B20ABEDBFE089EC9FE30E94721F89
:1033D60006C00E941D200E9409200E944B20E983FE
:1033E600FA836B837C83103029F00E941D200E9493
:1033F6008D2002C00E941D201881299608950E94E2
:10340600CE1C0E943D2048F00E94CE1C0E94442003
:1034160019F010F00C94101A03C00E9429200BC05A
:103426000E94F31F94DFABEDBFE089EC9FE30E949F
:103436008E230E942C212496089524970E94271BF0
:103446000E94AB23D9F4E885F9856A857B850E94BD
:10345600AB2319F40E94292039C0A885B9858A852D
:103466009B850E94B3232CF4EBEDFFE069EC7FE330
:103476002DC0EBEDFFE069EC7FEB28C00E94EB1F4F
:103486000E94BD1C0E94B32364F4AB85AA2322F0DC
:103496000E94F31F25DF1AC00E9451200E948D2032
:1034A60015C0AB85AA234AF00E945120ABEDBFE0C0
:1034B60089E490E40E94721F09C00E94F31F10DF86
:1034C600ABEDBFE089E490EC0E9433212C96089581
:1034D60029D3E0E0EA83EFE3EB831A930A93EB85C3
:1034E600FC85EF3FAFEFFA0729F4DFD5ECE3F4E014
:1034F600BDD482C0EF3FAFE7FA0729F4D6D5EDE396
:10350600F4E0B4D479C0AC85AA2352F4E985FA85EF
:103516006B857C850E948D20CDD5D1D5EDE2EC93CF
:10352600A885A73010F0E6E0E8871885E12F11504E
:10353600E03021F0CBD5BDD4CED5F8CFD1D50E9481
:103546003321B8D510E0E0E0F0E060E87FE3C3D5D2
:10355600C7D50E94162260F0B9D5A0D4BCD51F5F8E
:10356600173228F0A2D5E1E4F4E080D445C0F0CFCC
:10357600103021F4A4D5E0E3EC931CC0E12F1150E8
:10358600E030C1F0A3D595D48DD49AD4A4D5A8D5CE
:103596000E94D1210E94C0200E2F91D5E02FE05D20
:1035A600EC9374D393D5C8D00E948321A2D597D427
:1035B60081D5E4CFE885E030D9F081D5EEE2EC9311
:1035C600E885E150E887EF5F99F093D567D472D527
:1035D600E985FA856B857C850E94C0200E2F6FD504
:1035E600E02FE05DEC9352D384D563D163D5E8CF69
:1035F600AE81BF81E0E0EC93198108812D96089594
:10360600FA93EA93E5E0F0E0FA93EA930C94570311
:10361600EA930E9418031E2F08952497EC85FD85D2
:103626006E857F850E947723E885F9856A857B8587
:103636000E9472230E9416220895E885F9856A85FC
:103646007B850E9477230895EC81FD816E817F81C1
:1036560008950E9472230E9416220895F5DF0E94A3
:1036660077230895E0E0E0930005E0930105E093F9
:103676000205E09303050895E093FC04F093FD042E
:1036860008950E948C220E94F9200E947C230895AE
:103696000E94C220ED93FC930895E0917504F09189
:1036A600760460917704709178040895A8A1B9A171
:1036B6008AA19BA108950E942C21DE015696E8CF8F
:1036C600EE89FF890E948C220E94F9200895EBED75
:1036D600FFE069E470EC0E9416220895E8A1F9A1C2
:1036E6006AA17BA1A88DB98D8A8D9B8D0E94162219
:1036F6000895EE89FF890E947A22EE8BFF8B08954A
:10370600DF01CB01EBEDFFE069E470E40E941622D5
:103716000895ECA1FDA16EA17FA10E947C230895CE
:10372600E8A1F9A16AA17BA10E947C230895ECA1DE
:10373600FDA16EA17FA108950E948C220E94F9200E
:103746000895EA89FB89B2DFF7CFE8A1F9A16AA15A
:103756007BA10895EE89FF89A9E1B0E00E94C42209
:103766000895E889F989FA93EA93EFE0F0E0FA938D
:10377600EA930895E5E0F0E0FA93EA93E6E1F0E0F3
:10378600FA93EA930C940B04EA930E94AF05E0E0E7
:10379600EA9308951A930A9300E010E0E1E0EA93B1
:1037A600E0E0EA930E94AF0500E010E00895E1E052
:1037B600EA93EB81F0E0B097A5E0B0E00E949C228E
:1037C600EC5AFF4FE00FF11FE491EA930C94AF051A
:1037D600EA93E0E0EA930C94AF051A930A9300E0AB
:1037E60010E000E010E00895FA93EA93E0E0F0E0DC
:1037F600FA93EA930C94BC05E12FF0E00895DE01FC
:103806001196EA0FFB1FBF01AE81BF81EAE0F0E02F
:103816000E942F23DB01EC93AE81BF81EAE0F0E04A
:103826000E94E122EE83FF830895A4E0B0E00E94A7
:103836009423EA1BFB0BDE011196AE0FBF1FEC9122
:10384600E05DEA930895E8EEF3E0FA93EA930C94C8
:103856008120EA1BFB0BE883F9830895FA93EA9328
:103866000C944406FA93EA930C94E605E150F0E0D2
:10387600E25DFA4F0895E150F0E0E75CFA4F0895F3
:10388600AA93BA93EA93FA93EFB7EA930895E88175
:10389600F0E0F2CEE8A5F9A56AA57BA50895E8A90A
:1038A600F9A96AA97BA90895E0916104F0916204DF
:1038B600089542DF0E948E230E942C210895E091F4
:1038C6006304F09164040895ACA5BDA58EA59FA5DB
:1038D6000E9483210895A8A5B9A58AA59BA50E9443
:1038E600832108950E9433210E947C230C94362262
:1038F600ACA1BDA18EA19FA108950E943321EC8B9E
:10390600FD8B6E8B7F8B0895AC89BD898E899F89CF
:103916000895E88BF98B6A8B7B8B0895BBDF0E9439
:103926007C230895BCDF0E947C230C94201AEC872C
:10393600FD876E877F870895A885B9858A859B85CB
:10394600EC85FD856E857F850E942C210895EC838C
:10395600FD836E837F830895E889F9896A897B8967
:103966000895A0E0B0E084E393E40E948321DF01A0
:10397600CB010895AC81BD818E819F810895E09130
:103986006D04F0916E0460916F0470917004089557
:103996000E94772308950E9472230895E0E0F0E0E4
:1039A60060E07FE30E9483210895A0917504B091A1
:1039B600760480917704909178040895E0E0E0938E
:1039C600BD04E093BE04E093BF04E093C004E0931B
:1039D600C104E093C204E093C304E093C404E0E0AE
:1039E600F0E063E373E4E093C504F093C6046093E8
:1039F600C7047093C804E093C904F093CA046093A3
:103A0600CB047093CC040895EAE9F9ED66E873E413
:103A1600E093B504F093B6046093B7047093B804CA
:103A2600EAE9F9E969ED7FE3E093B904F093BA04B2
:103A36006093BB047093BC04E0E0F0E060EA72E4DB
:103A4600E093A104F093A2046093A3047093A404EA
:103A5600E0E0F0E062E873E40895E0E0F0E064E8B6
:103A660072E4E093B504F093B6046093B7047093E0
:103A7600B804EDECFCEC6EE972E40895E0E0F0E0E9
:103A860067E873ECE093A104F093A2046093A304A7
:103A96007093A4040895E0E0F0E067E873E4E0932F
:103AA600A504F093A6046093A7047093A804089550
:103AB600E093C504F093C6046093C7047093C804EA
:103AC600E0E0F0E063E373E40895E6E6F6E668E531
:103AD60072E4E093B504F093B6046093B704709370
:103AE600B804EDECFCEC67EC72ECE093B904F093EF
:103AF600BA046093BB047093BC04C0CF0A921A92B6
:103B0600FA926A937A938A939A93AA93BA93EA93C8
:103B1600FA93EFB7EA930895ED91FD913196FE93EE
:103B2600EE9308952497E0E0E883E9830895E09111
:103B36002C05F0912D050895E0912A05F0912B05AD
:103B46000895A0910005B09101050895E093000540
:103B5600F09301050895A0910205B091030508951B
:103B6600E0930205F09303050895E0E0E883E98316
:103B76000895E2DFA0912C05B0912D05AE0FBF1F71
:103B8600FD01F695E7950895E991EFBFF991E99161
:103B9600B991A9919991899179916991F990199021
:103BA60009900895FA93EA93E8E2F0E0FA93EA932B
:103BB6000C94BC05FA93EA930C945C06E3E0F0E0FF
:103BC600FA93EA930895E4E1F0E0FA93EA930C9409
:103BD600BC05E2E0F0E0FA93EA930895E1E0F0E054
:103BE600FA93EA930895E0E0F0E0FA93EA930895F1
:103BF600E8ECF0E0FA93EA930C948120E0E0EABB6B
:103C0600EBBB0E94F205EFCFEAE0F0E0FA93EA930D
:103C16000C94BC05E1E0F0E0E7CDEAE2F0E0FA93CF
:103C2600EA930C94BC05EA930E945E07E8E5F2E08D
:103C3600FA93EA930C9481200E949E050C94A405A5
:103C4600F801A2EEB4E0EE0FFF1F0895A091E6047E
:103C5600B091E7040895AE0FBF1F0E946323089535
:103C66000E94F00B4091E2045091E30400E011E061
:103C76000895E12FA2EEB4E0F0E0EE0FFF1F0895E5
:103C8600AE0FBF1F4D915C91012F0895E02FF0E01C
:103C96000895E1E0EA930C944207E4E1EA930C9478
:103CA6005A07EFE0EA930C945A07EFE0EA930C9474
:103CB6004207E1E0EA930C945A07E4E1EA930E9492
:103CC6004207F7CFA0E09899A1E0A0300895E4E07C
:103CD600F0E0FA93EA9398CF0E94F00BE091E204A9
:103CE600F091E304EBA3FCA340E050E001E010E018
:103CF6000895ABA1BCA1EA17FB070895A130E0E047
:103D0600BE07E0E08E07E0E09E070895AC85BD851E
:103D16008E859F8508950E94D121A889B9898A89AF
:103D26009B890E9433210895A889B9898A899B892C
:103D36000895EADDE0E0F0E060E271E40895EC8BDE
:103D4600FD8B6E8B7F8BE0E0E88BE98BEA8BEB8B50
:103D56000895EC85FD856E857F850895EA930E941A
:103D66004207E2E0EA930C945A070E94F2053BCF21
:103D7600FA93EA930C94BC05AC9AAD9AE4E6F0E0AB
:103D8600FA93EA930E948120AC98AD98E4E6F0E0BD
:103D9600FA93EA930C948120EA930E944207E0E0AA
:103DA600EA930C945A07EA930E944207E4E6EA93E0
:103DB6000C945A07E2E0F0E017CDEAE0F0E0FA935F
:103DC600EA930C948120FA93EA930C941206EBE2A0
:103DD600F0E0CECFE091DD04F0E0E130A0E0FA07BC
:103DE6000895FA93EA930C948120E3BFE0E0E2BFE2
:103DF600ECBFE2BD08950E945811DCCFE091EF03BD
:103E0600F091F0036091F1037091F2030895E0E000
:103E1600F0E060E271E40895F1DF0E94C220DF0164
:103E2600EAE0F0E00E94F4225F010895E0E0F0E0AD
:103E360060E070E00E947C230895EFECF3E0FA93D3
:103E4600EA9308950E947C2384E00E94F217289644
:103E5600E883F3CFEA81EA930E949D03EECFFA93BB
:103E6600EA93E091DB04F091DC040895FA93EA9377
:103E76000C94BB147FDDCBDF0E94832168CDE4DB8D
:103E860045DF0E941622089541DFEDECFCEC6CEC58
:103E96007DE30E9483214BDD3F5F0895B8DF0E94DA
:103EA60083210895A0E0B0E080E09FE30E943321E3
:103EB6000895EDECFCEC6CEC7DE30E948321089503
:103EC6000E947C230C945718A885B9851196A8875B
:103ED600B987119708954EDD0E94832108950E94A7
:103EE6008E230E942C210895E885F9853196E8876E
:103EF600F98708952A93EF81F885FA93EA93EB857B
:103F0600FC8509950895FE01E65AFF4F0190F08160
:103F1600E02D08953497DE01A65ABF4FED93FC932A
:103F26000895EF81F885FA93EA93EB85FC85099568
:103F36000895DE01A65ABF4F0D90BC91A02D08959D
:103F4600EA87FB876C877D870895DDDFE3CFEA8507
:103F5600FB856C857D850895EE87FF87FA93EA9346
:103F66000E94C6141E2F0895E4DF14960E94632350
:103F760008950B7FED89EA93FE01E95AFF4F019000
:103F8600F081E02DFA93EA93FE01E55AFF4F019086
:103F9600F081E02D099550300895DEDCAA85BB85B9
:103FA6008C859D850895DE011C960E946C220E94D8
:103FB600632308950E946D2308950E947C230E9426
:103FC6002818E6CCF7DFA0E0B0E080E89FE308958C
:103FD6003BDBA885B9858A859B850E94D121D8CCF3
:103FE600E9DF0E947C23089524971A9310E0AD819F
:103FF600BE818F8198850895ED83FE836F837887D0
:104006000895ED81FE816F8178850895AD81BE8129
:104016008F8198850895FADFE0E0F0E060E07FE3C5
:104026000895EFDF0E948D20E7CFEBDFEFDF0E94E0
:1040360083210895E981FA816B817C810895A981A4
:10404600BA818B819C810E9483210895EFEFFFEF57
:104056006FE77FE708950E948321AEE4BFE88AE414
:1040660091E40E94332108950E94D1210E947C236D
:104076000C944A19E0E0F0E060E87FEB0E9416221B
:104086000895E0E0F0E060E87FE30E9416220895DC
:104096000E94D1210E947C230C9473198BDF0E940D
:1040A6008D200E947C230C947319EE81FF81FA9374
:1040B600EA930895E987FA876B877C870895AE812E
:1040C600BF811196AE83BF8311970895AA81BB81E4
:1040D6008C819D810895EA83FB836C837D8308959B
:1040E600EA81FB816C817D81A985BA858B859C855A
:1040F6000895A985BA858B859C850895E991F991DE
:10410600309639F080ED97E00197F1F7A895319751
:10411600C9F7089530976040704009F070580895C7
:10412600552342F4503811F4E0FF04C03196691F5C
:10413600791F6BF050E8572711F45F93CFC05F3FAC
:1041460031F0660F000C57956795752F08955F93AC
:1041560000200AF0CFC0C8C050E8192E1522880FDB
:10416600991F9527550F879550E8072E0522660F4C
:10417600771F7527550F67950895689401C0E894D1
:104186005F93F2DF703818F07F3F08F4A7C056E15E
:10419600571BAAF4519558300EF4593030F0EFEF12
:1041A600FFEF6FEF7FE777F91AC077275523B9F04E
:1041B600EE0FFF1F661F771F5A95D1F710C077279E
:1041C600583028F0EF2FF62F672F5850F9CF552388
:1041D60031F076956795F795E7955A95D1F70020D2
:1041E6000AF489D15F910895689401C0E8943097E4
:1041F60060407040B1F0002426F0772312F400945A
:104206007AD1172E7EE1112032F07A95EE0FFF1F3C
:10421600661F111CF9CFEF2FF62F612D5F938ADFF2
:104226005F9108954F93AF01FD01DA01AB01BC0127
:10423600CA01402D012C142E4F910895EA0FFB1F41
:10424600681F0895E095F0956095EF5FFF4F6F4FFB
:1042560008955F9381DF903871F150E8152604C008
:104266005F937ADF903839F1703821F1572F591B57
:104276002BF112F4D7DFFACF583118F0AA27BB2753
:104286008827583028F0AB2FB82F88275850F9CFF9
:10429600552329F08695B795A7955A95D9F7502DA8
:1042A600512572F0CBDF38F46795F795E79573954E
:1042B60013F420C0B7DF3EDF5F910895D8F7FBCF38
:1042C600EA1BFB0B680B51F010F40094BBDF66236E
:1042D60092F3EE0FFF1F661F7A95CBF7EE27FF27A7
:1042E600662777275F910895EFEFFFEF6FE77FEF80
:1042F6005F910895EFEFFFEF6FE77FE75F91089516
:104306005F932ADF703851F3903841F30124089403
:10431600791F23F41CF300203AF3ECCF0F921F937E
:104326002F933F934F93112722279927689FA00128
:104336008F9F302D410D591F6B9F300D411D591F09
:104346008E9F27D0BF9F25D06A9F23D0BE9F1DD0AA
:10435600AF9F1BD0AE9F110D291F391F491F591F33
:10436600E32FF42F652F522F4F913F912F911F91DD
:104376000F9066232AF0550FEE1FFF1F661F02C01F
:1043860073954BF2CDDE5F910895100D211D391FF7
:1043960002C0200D311D491F591F08955F93DCDEB1
:1043A600703821F411200AF49FCFA4CF903809F475
:1043B60095CF01240894970B1BF4D4F30020F3CF78
:1043C600792F1F932F933F934F9311241127222761
:1043D60033274427552790E2AE17BF0786074107C4
:1043E60030F0AE1BBF0B860B410B089401C08894BE
:1043F600551F221F331F111CAA1FBB1F881F441FD6
:104406009A9551F7F901612D4F913F912F911F9187
:10441600662332F0550FEE1FFF1F661F7A9543F293
:104426007FDE5F91089599239AF0772342F09717DC
:1044360048F029F4AE17BF07860720F031F09894AC
:1044460088940895989408940895189488940895E3
:104456007723C2F7971798F3A9F7EA17FB076807B8
:1044660088F399F3ECCF24975F939F81992311F4F6
:10447600289634CF12F428963DCF4F9342E48E818E
:10448600BD81AC8188839983AA83BB83FD01BC016E
:10449600AC81BD818E819F8181DF88819981AA81CE
:1044A600BB81DEDE61DE7A9545DE88819981AA814F
:1044B600BB81AE27A87F21F4BF178607970729F08F
:1044C6004A9519F0DF01CB01DDCF4F915F91289618
:1044D60008950024AF0DB01D0895EA0FFB1F681F55
:1044E600791F0895EA1BFB0B680B790B0895F1956C
:1044F600E195F0400895F09560957095E195FF4F30
:104506006F4F7F4F0895FE2FFF0FFF0B6F2F7F2FEB
:1045160008956F2F660F660B762F08958B2F880FE1
:10452600880B982F0895AE17BF07E1E008F0EE2735
:104536000895FA9FF02DEB9FF00DEA9FE02DF10D07
:1045460008957A9F702D6B9F700DF89F700DE99FEF
:10455600700D6A9F602D710DFB9F600D711DE89FA8
:10456600600D711D8827FA9FF02D610D781FEB9F56
:10457600F00D611D781FEA9FE02DF10D681F781F71
:1045860008957DD0D6DF0EF4B2DF089586D0D9DF48
:104596000EF4B1DF0895002498E0AA0F001C0E1A4D
:1045A60010F40E0E01C0A1609A95B9F7EA2FA02D5E
:1045B600089559D0F0DF0EF4E195089500241124F2
:1045C60090E1AA0FBB1F001C111C0E1A1F0A18F43B
:1045D6000E0E1F1E01C0A1609A9599F7FD01D0012C
:1045E60008954DD0EBDF0EF482DF08953F934F938D
:1045F6005F93002411244427552730E2AA0FBB1FDE
:10460600881F991F001C111C441F551F0E1A1F0AD4
:10461600460B570B28F40E0E1F1E461F571F01C0D0
:10462600A1603A9559F7FD01BC01D001CA015F911D
:104636004F913F91089531D0D9DF0EF45CDF089594
:10464600E894A7FF02C0A1956894E7FDE195A3DF72
:10465600EA2F0EF4E1950895B1DFFD010895C6DF56
:10466600FD01BC010895E894E7FF02C0E195689456
:10467600A7FF04C0A19500F8039400FA0895E894F2
:10468600F7FF02C034DF6894B7FF06C0A095B09567
:10469600119600F8039400FA0895E89477FF02C093
:1046A6002ADF689497FF0BC00024A095B0958095EB
:1046B60090951196801D901D00F8039400FA0895B8
:1046C600ED91FC9111970895ED91FD916D917C917D
:1046D60013970895E881F9816A817B810895A881FD
:1046E600B9818A819B810895E883F9836A837B83F4
:1046F60008957A936A93FA93EA930895BB27EA0F8B
:10470600FB1F02900A921197E1F70895689401C081
:10471600E89401D06CDD182E862F612D192E972F67
:10472600712D1B2EBF2FF12D1A2EAE2FE12D0895C0
:104736009927EF93FF9361916D930197E1F7FF91AD
:10474600EF91089500240E160F0606060706089533
:10475600309760407040089500240A160B060895AD
:1047660000240A160B06080609060895EA17FB0731
:104776006807790708955A934A933A932A931A93A6
:104786000A9308955D814C813B812A8119810881B4
:104796000895AC0FBD1F05900D928A95E1F7089517
:00000001FF
